:10000000F8FF002011040000110F0000110F000084
:10001000110F0000110F0000110F0000110F000060
:10002000110F0000110F0000110F0000110F000050
:10003000110F0000110F0000110F0000110F000040
:10004000110F0000110F0000110F0000110F000030
:10040000FFFFFFFFFFFFFFFFFFFFFFFFFEFFFFFFFD
:1004100062B64FF000004FF000014FF000024FF0C5
:1004200000034FF000044FF000054FF000064FF0BE
:1004300000074FF000084FF000094FF0000A4FF09E
:10044000000B4FF0000C00F043FEFEE710B50C4629
:100450001168012902D0022904D008E0C0B2516815
:10046000884704E0916808709068401C906020689C
:10047000401C206010BD30B4002400F8014B002A5D
:10048000096812D091B191FBF3F203FB121100291C
:1004900046BFC94301F1310501F130051146641C25
:1004A00000F8015B0029EED114E019B93021017088
:1004B00001240FE0B1FBF3F203FB12110A2934BF50
:1004C00001F1300501F137051146641C00F8015BAC
:1004D0000029EFD1204630BC70472DE9F04F80460F
:1004E0008FB00020924600900D4604E0424600A9DD
:1004F000FFF7ACFF6D1C2878010000F099812528DA
:100500000AD00A28F2D1424600A90D20FFF79EFF2B
:10051000424600A90A20EBE7002601E046F010065B
:1005200015F8010F20280ED02328F7D02B2807D04C
:100530002D2802D0302809D00BE046F00106EFE765
:1005400046F00206ECE746F00406E9E746F0080646
:10055000E6E7691E4FF0000905E009EB890200EBB0
:100560004200A0F1300911F8010F0246303A092A81
:10057000F3D92E2804D111F8010F30380928FAD9FF
:100580004D1E15F8010F4C2818BF682802D06C28A2
:1005900018BF6D1E15F8010F582862D0622800F0B0
:1005A000C080632800F00C81642818BF692811D02E
:1005B0006E2800F038816F2800F0AE80702800F0BF
:1005C000B580732800F00081752800F0B480782889
:1005D00047D08BE75AF8040B0A230390012203A9A2
:1005E00005A8FFF748FF044605A8201802900398C5
:1005F000002848BF2D2706D4B00748BF2B2702D4B8
:10060000700702D52027641C00E00027300711D5B1
:10061000384618B1424600A9FFF718FF4C4507DAE3
:10062000424600A93020FFF711FF641C4C45F7DB60
:100630004C46A9E0F0070BD4A3464C4508DA4246E5
:1006400000A92020FFF702FF0BF1010BCB45F6DBE1
:100650003846002800F09880424600A9FFF7F6FED1
:1006600092E05AF8040B10230190002201A905A87A
:10067000FFF701FF044605A8201802900027300765
:1006800018D5F0060AD5424600A93020FFF7DEFE55
:10069000424600A97820FFF7D9FE01274C4507DA2A
:1006A000424600A93020FFF7D1FE641C4C45F7DB21
:1006B0004C4621E0F0071FD406F010008DF8100022
:1006C00000B1A41CA346CB4508DA424600A920206D
:1006D000FFF7BCFE0BF1010BCB45F6DB9DF81000DC
:1006E00050B1424600A93020FFF7B0FE424600A9B3
:1006F0007820FFF7ABFE0127F00645D5002F43D148
:10070000424600A93020FFF7A1FE424600A978200A
:10071000FFF79CFEA41C37E05AF8040B0823019055
:100720000DE05AF8040B0223019008E05AF8040B7C
:100730001023019003E05AF8040B0A2301900022D1
:1007400001A905A8FFF797FE044605A82018029006
:1007500030070CD54C45BFF66BAF424600A93020A0
:10076000FFF774FE641C4C45F7DB4C460CE0F007C9
:100770000AD427464C4507DA424600A92020FFF755
:1007800065FE7F1C4F45F7DB0298007848B102A850
:10079000076842467B1E036000A93878FFF756FEC3
:1007A000F2E7F0077FF5A6AE4C45BFF6A3AE424692
:1007B00000A92020FFF74AFE641C4C45F7DB99E6B0
:1007C0005AF8040BC0B291E65AF8047B002F3FF4AC
:1007D00091AE384600F042F80446F0070BD4A34629
:1007E0004C4508DA424600A92020FFF72FFE0BF106
:1007F000010BCB45F6DB387830B1424600A917F83B
:10080000010BFFF723FEF6E7F0077FF573AE4C45CB
:10081000BFF670AE424600A92020FFF717FE641C09
:100820004C45F7DB66E65AF8040B0099016061E677
:1008300000980FB0BDE8F08F0EB400B584B0012170
:100840000091054905AA0191014600A8FFF745FE60
:1008500004B05DF810FB0000F1100000002138B179
:10086000027822B110F8012F491C002AFAD108465B
:10087000704750F8041B61B150F8042BD30744BFF4
:10088000A9F101039A18002342F8043B091FFAD189
:10089000EFE77047DFF800F05904FF1F70B500283C
:1008A00000F0918030281ED0322826D0602827D032
:1008B00064284DD06E2826D0782827D07D2828D0CF
:1008C000822829D08C282AD096282BD0A0282CD05A
:1008D000AA282DD0B4282ED0C8282FD0E12830D077
:1008E000FA2831D033E018210022594C2170002120
:1008F0006270A17033282ED239E018210122F4E76A
:1009000018211822F1E718211F22EEE713211822DF
:10091000EBE713211A22E8E713211C22E5E70E2159
:100920001222E2E70E211522DFE70E211822DCE772
:100930000E211B22D9E70E211E22D6E70C211C22F4
:10094000D3E70B211E22D0E70A211F22CDE7642026
:1009500018211A22C9E7652838BF012107D3972833
:1009600038BF022103D3C92834BF03210F21E1700E
:10097000E1781A28217138BF002023D3332838BFEB
:1009800001201FD34C2838BF02201BD3652838BF55
:10099000032017D37E2838BF042013D3972838BFED
:1009A00005200FD3B02838BF06200BD3C92838BF85
:1009B000072007D3E22838BF082003D3FB2834BF21
:1009C00009200F206071224C32216078214E1830AE
:1009D00080B248432178491C89B290FBF1F5002090
:1009E00070701D48016841F0805101601B4801781A
:1009F00041F08001017098203070B079C006FCD4BD
:100A0000B079C0F381000228FAD1207800F01F00ED
:100A100030710020707163792279E178A078FFF756
:100A200039FF607800F01F0040F040007071B0792D
:100A30008006FCD5B0794006FCD5307800F03F0048
:100A40003070B079C0F381000328FAD1E8B270BDEC
:100A50003804FF1F004006403480044008C00740AF
:100A6000F0B4052844D8DFE800F0030E19242F392C
:100A70004B4A4FF44073536013604A4AD36843F4BF
:100A80008063D36034E0484A4FF44073136053608E
:100A9000444AD36843F40063D36029E0434A4FF4E7
:100AA0004073536013603F4AD36843F48053D3606C
:100AB0001EE03D4A4FF4407353639363394AD36851
:100AC00043F40053D36013E0394A4FF44073536446
:100AD0001364344A136843F4806308E0344A4FF4E3
:100AE0004073536013602F4A136843F4006313602C
:100AF000304B024653F82240E57805F0F305E570E7
:100B000053F822400025A57000281ABF01282A4862
:100B10002A4800684FF47A74604353F82250090160
:100B2000B0FBF1F42F782604360E66F304072F701D
:100B300053F8225040016C7053F82240B0FBF1F0A2
:100B4000A17A60F30401A17253F82200C17841F048
:100B50000C01C170F0BC7047164A52F8203093F86F
:100B600004C05FEA0C6CFAD5D971704770B50446C1
:100B70000D46160006D015F8011B2046FFF7ECFFC6
:100B8000761EF8D170BD38B504460D4604E015F860
:100B9000011B2046FFF7E0FF28780028F7D131BD80
:100BA00038900440288004400CB0044008C0044041
:100BB00020D004404004FF1F9C04FF1F9404FF1F2B
:100BC00080B5012301220C21032000F06DF80123E0
:100BD0001A460D21032000F067F801231A460E2162
:100BE000032000F061F8BDE8005001231A460F21F0
:100BF000032000F059B82B4A4FF0010CD2680CFAD0
:100C000000FC136801F0010123EA0C0301FA00F073
:100C100018431060704780B5012301220C21032086
:100C200000F042F801231A460D21032000F03CF8A1
:100C300001231A460E21032000F036F801231A463C
:100C40000F21032000F030F800210C20FFF7D3FF24
:100C5000642000F057F801210C20FFF7CCFF0021A1
:100C60000D20FFF7C8FF642000F04CF801210D2093
:100C7000FFF7C1FF00210E20FFF7BDFF642000F049
:100C800041F801210E20FFF7B6FF00210F20FFF7EA
:100C9000B2FF642000F036F8BDE8044001210F20C7
:100CA000A9E700001004FF1F70B4154C4FF48076C4
:100CB00004EB80056D69164345F82160D50703D51F
:100CC000032A18BF132A09D154F8200001234269CE
:100CD00003FA01F122EA010141610EE054F820001B
:100CE000012202FA01F142690A434261012B0268C2
:100CF0000CBF114322EA0101016070BC7047000083
:100D00001004FF1F40B1054909680A0002D000BF66
:100D1000521EFCD1401EF8D1704700009C04FF1FFA
:100D200070B54FF496410020FFF79AFE0FF2440091
:100D3000FFF782FD0FF24C00FFF77EFD0FF28404F7
:100D40000FF268050FF2580646210020FFF704FF56
:100D50000B2231460020FFF709FF29460020FFF74C
:100D600012FF2046FFF768FD4FF4FA7000F042F8DA
:100D7000EAE70000B4AEBFDAB7A2CBCDCAB5D1E97D
:100D80000A0A00000909A1AAA1AAD2B0BBF06B69A6
:100D90006E65746973BFAAB7A2B0E50A0A000000C5
:100DA000756172745F73656E644E0A00756172746A
:100DB0005F737472BAAFCAFDB7A2CBCDCAFDBEDDF8
:100DC000000000000A2D2D2D2D2D2D2D2D2D2D2D2A
:100DD0002D2DD2B0BBF06B696E65746973BFAAB775
:100DE000A2B0E52D2D2D2D2D2D2D2D2D2D2D2D2D83
:100DF0000A0A00000A490A6842F001020A60094929
:100E0000886005204860086840F0010008600868B4
:100E10000006FCD5086840084000086070470000E4
:100E2000388004400000044010B51649164C8C422E
:100E300004D04FF48252204600F038F8204600F0EB
:100E400061F81249124A1348521A05D011F8013BB1
:100E5000521E00F8013BF9D10F481049091A05D07C
:100E6000491E002200F8012B0029F9D10C490D4A36
:100E70000D48521A05D011F8013B521E00F8013BF3
:100E8000F9D110BD000000000000FF1F600F00003E
:100E9000A80F00001004FF1F9404FF1FA004FF1FF1
:100EA000EC0F0000281000005804FF1F103A07D371
:100EB00030B4B1E83810103AA0E83810F9D230BC9C
:100EC000530724BFB1E80810A0E8081044BF51F848
:100ED000043B40F8043BD20724BF31F8022B20F832
:100EE000022B44BF0B7803707047083A07D3B1E870
:100EF0000810083A40F8043B40F804CBF7D25307F7
:100F0000E4E70000014908607047000008ED00E0D8
:100F100080B5FFF755FEFFF77EFE04480178BDE877
:100F200004400FF20C00FFF787BC000004ED00E066
:100F30000A2A2A2A2A64656661756C745F6973726D
:100F400020656E7465726564206F6E2076656374CB
:100F50006F722025642A2A2A2A2A0D0A0A00000014
:100F600000F00F4040F00F4080F00F40C0F00F4005
:100F700000F10F400090044000A0044000B0044085
:100F800000C0044000D004400B1F00000009000016
:100F900000A0064000B0064000C0064000D0064059
:100FA00000A00E4000B00E4038B50E4D0E4C286823
:100FB00040F478502860C820FFF770FC60604FF460
:100FC0007A7111FB00F02060E968C1F30361491CEC
:100FD000B0FBF1F0A060BDE834404FF49641012031
:100FE000FFF73EBD388004409404FF1F70B409062B
:100FF00001F0706141EA00701105094C01F47001C3
:10100000084325681904266801F47021084346F452
:101010007F06044926600860256070BC704700BFE9
:1010200000F001404480044080B500F007F8084813
:101030004FF6FE7201881140018001BD72B605486D
:101040004CF2205101804DF62811018062B67047A4
:10105000002005400E20054010B5084979441C3198
:10106000074C7C441A34A14206D0081D0A68511866
:1010700088470146A142F8D110BD00BF080000001A
:1010800014000000EFF7FFFF0C0000009404FF1FA6
:10109000000000000120C046002801D0FFF7DCFF5F
:1010A0000020FFF73DFE00F000F800F001B800005E
:1010B0000746384600F002F8FBE7000080B5C0465E
:1010C000C046024A11001820ABBEFBE72600020012
:1010D00080B5FFF7A9FFFFF7A7FEFFF765FFFFF752
:1010E0001FFEFEE7C046C046C046C046FFF7D2FF1F
:0810F00001460120FFF730BDAD
:04000005000010E502
:00000001FF
