:10000000F8FF0020110400006511000065110000D8
:100010006511000065110000651100006511000008
:1000200065110000651100006511000065110000F8
:1000300065110000651100006511000065110000E8
:1000400065110000651100006511000065110000D8
:1000500065110000651100006511000065110000C8
:1000600065110000651100006511000065110000B8
:1000700065110000651100006511000065110000A8
:100080006511000065110000651100006511000098
:100090006511000065110000651100006511000088
:1000A0006511000065110000651100006511000078
:1000B0006511000065110000651100006511000068
:1000C0006511000065110000651100006511000058
:1000D0006511000065110000651100006511000048
:1000E0006511000065110000651100006511000038
:1000F0006511000065110000651100006511000028
:100100006511000065110000651100006511000017
:100110006511000065110000651100006511000007
:1001200065110000651100006511000065110000F7
:1001300065110000651100006511000065110000E7
:1001400065110000651100006511000065110000D7
:100150008D1100006511000065110000651100009F
:1001600065110000651100006511000065110000B7
:1001700065110000651100006511000065110000A7
:100180006511000065110000651100006511000097
:100190006511000065110000651100006511000087
:10040000FFFFFFFFFFFFFFFFFFFFFFFFFEFFFFFFFD
:1004100062B64FF000004FF000014FF000024FF0C5
:1004200000034FF000044FF000054FF000064FF0BE
:1004300000074FF000084FF000094FF0000A4FF09E
:10044000000B4FF0000C01F00BF8FEE770B5040054
:100450000D0016003068012802D0022805D00AE0FD
:100460002000C0B27168884705E0B0680470B068C9
:10047000401CB060FFE72868401C286070BD2DE973
:10048000F04704005FF0000A5046A1465FF0000A02
:1004900089F800A019F10109002A1FD0D1F800A0A5
:1004A0005546002D05D15FF0300A89F800A0401CA8
:1004B00038E0002D36D095FBF3FA564603FB165A6A
:1004C0005746002F02D5FF43313700E03037350063
:1004D00089F8007019F10109401CEAE7D1F800A081
:1004E000D446BCF1000F05D15FF0300A89F800A0B6
:1004F000401C17E0BCF1000F14D0BCFBF3FAD64649
:1005000003FB1ECAD046B8F10A0F02D218F1300818
:1005100001E018F13708F44689F8008019F1010963
:10052000401CE7E7BDE8F0872DE9F04104000D002D
:1005300016001F00A046A84507DA3A003100302017
:10054000FFF784FF18F10108F5E7BDE8F0812DE918
:10055000F04104000D0016001F00A046A84507DA70
:100560003A0031002020FFF771FF18F10108F5E78C
:10057000BDE8F0812DE9F24F92B004001500002093
:100580000090129883469BF800000590002800F028
:10059000F2810598252813D005980A2805D0220055
:1005A00000A90598FFF752FF09E0220000A90D20DD
:1005B000FFF74CFF220000A90A20FFF747FFD7E111
:1005C00000208146002003900398002822D11BF1CF
:1005D000010B9BF8000020280ED0232812D02B28D6
:1005E00007D02D2802D0302809D00EE059F001099B
:1005F000EAE759F00209E7E759F00409E4E759F09E
:100600000809E1E759F01009DEE7BBF1010B012011
:100610000390D9E700208246002003900398002829
:1006200013D11BF1010B9BF800000590303809280D
:1006300006D80A20059900FB0A10B0F1300AEDE750
:10064000BBF1010B01200390E8E71BF1010B9BF8C4
:1006500000002E2811D100200390039800280ED10D
:100660001BF1010B9BF800003038092800D8F4E793
:10067000BBF1010B01200390EFE7BBF1010B1BF174
:10068000010B9BF800004C2806D0682802D06C288B
:1006900001D002E003E002E001E0BBF1010B1BF13D
:1006A000010B9BF800000590582875D0622800F0D7
:1006B000D580632800F01D81642813D0692811D0EB
:1006C0006E2800F049816F2800F0BD80702800F08E
:1006D000D080732800F01681752800F0D580782826
:1006E0005AD040E1286806902D1D0A23012206A950
:1006F00009A8FFF7C4FE070009A8381806000698E5
:10070000002803D52D2002907F1C0FE0484680076B
:1007100003D52B2002907F1C08E04846400703D5F4
:10072000202002907F1C01E0002002900020049015
:100730004846000711D50298002804D0220000A9DD
:100740000298FFF783FE01200490230000AA51467F
:100750003800FFF7E9FE574612E04846C0070FD4BD
:10076000230000AA51463800FFF7F1FE0298002846
:1007700004D0220000A90298FFF768FE012004902F
:100780000498002807D10298002804D0220000A96C
:100790000298FFF75BFE98E0286801902D1D10235A
:1007A000002201A909A8FFF76AFE070009A8381866
:1007B0000600002004904846000716D54846C006AB
:1007C0000BD5220000A93020FFF740FE220000A92F
:1007D0007820FFF73BFE01200490230000AA514639
:1007E0003800FFF7A1FE57461BE04846C00718D463
:1007F0004846C00600D5BF1C230000AA5146380059
:10080000FFF7A5FE4846C0060BD5220000A9302000
:10081000FFF71CFE220000A97820FFF717FE012039
:1008200004904846C0060DD5049800280AD122003D
:1008300000A93020FFF70AFE220000A97820FFF768
:1008400005FEBF1C41E0286801902D1D08230022F1
:1008500001A909A8FFF713FE07001FE0286801900F
:100860002D1D0223002201A909A8FFF708FE070099
:1008700014E0286801902D1D1023002201A909A869
:10088000FFF7FDFD070009E0286801902D1D0A23F0
:10089000002201A909A8FFF7F2FD070009A83818EE
:1008A00006004846000707D5230000AA5146380035
:1008B000FFF73AFE574608E04846C00705D4230034
:1008C00000AA51463800FFF742FE3078002806D0D3
:1008D000220000A93078FFF7B9FD761EF5E74846FB
:1008E000C00705D5230000AA51463800FFF72FFEA8
:1008F0003EE0287807902D1D220000A90798FFF7F9
:10090000A5FD35E0286880462D1DB8F1000F22D0E6
:10091000404600F049F807004846C00705D42300C8
:1009200000AA51463800FFF712FE98F80000002890
:1009300008D0220000A998F80000FFF787FD18F101
:100940000108F2E74846C00705D5230000AA514632
:100950003800FFF7FCFD0BE0286808902D1D089873
:100960000099016004E0220000A90598FFF76EFDE0
:100970001BF1010B07E6009813B0BDE8F08F0EB431
:100980007EB50400012000900648019007A80500EC
:100990002A00210000A8FFF7EDFD060030007EBC14
:1009A0005DF810FB7514000001000A000023002A06
:1009B00001D1002007E01000421C0078002801D07F
:1009C0005B1CF8E718007047DFF800F01104FF1F08
:1009D00038B50400E4B2002C00F00681E4B2200037
:1009E00030281ED0322823D0602828D064282DD06B
:1009F0006E2832D0782837D07D283CD0822841D04C
:100A00008C2846D096284BD0A02850D0AA2855D064
:100A1000B4285AD0C8285FD0E12864D0FA2869D019
:100A20006FE0A048182101709E48002141706CE0E1
:100A30009C48182101709B480121417065E099484C
:100A4000182101709748182141705EE095481821DF
:100A5000017094481A21417057E0924818210170A2
:100A600090481F21417050E08E48132101708D483D
:100A70001821417049E08B481321017089481A21DF
:100A8000417042E087481321017086481C21417063
:100A90003BE084480E21017082481221417034E00D
:100AA00080480E2101707F48152141702DE07D485E
:100AB0000E2101707B481821417026E079480E21F3
:100AC000017078481B2141701FE076480E210170AB
:100AD00074481E21417018E072480C210170714861
:100AE0001C21417011E06F480B2101706D481E21DF
:100AF00041700AE06B480A2101706A481F21417069
:100B000003E06420FFF764FFCAE0664800218170BB
:100B1000E4B2332C03D263480021C17017E0E4B281
:100B2000652C03D25F480121C17010E0E4B2972C1C
:100B300003D25C480221C17009E0E4B2C92C03D29F
:100B400058480321C17002E056480F21C170554832
:100B50005449C9780171E4B21A2C03D251480021DA
:100B6000417141E0E4B2332C03D24E48012141717E
:100B70003AE0E4B24C2C03D24A480221417133E0FE
:100B8000E4B2652C03D24748032141712CE0E4B262
:100B90007E2C03D243480421417125E0E4B2972C16
:100BA00003D24048052141711EE0E4B2B02C03D2CB
:100BB0003C480621417117E0E4B2C92C03D2394800
:100BC0000721417110E0E4B2E22C03D2354808213C
:100BD000417109E0E4B2FB2C03D232480921417192
:100BE00002E030480F2141712E484078183080B221
:100BF000322148432B490978491C89B290FBF1F016
:100C000005002948002101702848006850F08050F4
:100C1000264908602648007850F080002449087072
:100C200024489821017024480078C006FBD422484B
:100C30000078C0F38100C0B20228F8D119480078CA
:100C400010F01F001D4908701D4800210170154853
:100C50004379144802791348C17812488078FFF725
:100C6000B3FE1048407810F01F0050F040001449C7
:100C70000870114800788006FBD50F4800784006C0
:100C8000FBD50C48007810F03F000A4908700A486C
:100C90000078C0F38100C0B20328F8D12800C0B2A8
:100CA00032BD00BF8804FF1F01400640348004406D
:100CB00008C0074000400640064006400440064089
:100CC00005400640F0B4C0B2002808D0022824D065
:100CD00014D304283FD02FD305284BD059E06B4EB6
:100CE0004FF4407737606A4E4FF440773760694E73
:100CF000366856F48066674F3E604AE0664E4FF4B1
:100D000040773760654E4FF440773760614E366804
:100D100056F400665F4F3E603BE0614E4FF4407713
:100D20003760604E4FF4407737605A4E366856F45D
:100D30008056584F3E602CE05B4E4FF44077376052
:100D40005A4E4FF440773760524E366856F400568C
:100D5000504F3E601DE0564E4FF440773760554E81
:100D60004FF440773760544E366856F48066524FE1
:100D70003E600EE0514E4FF440773760504E4FF4D6
:100D8000407737604C4E366856F400664A4F3E60F6
:100D9000FFE7C0B24B4E56F82060F67816F0F30627
:100DA000C0B2484F57F82070FE70C0B2454E56F89A
:100DB00020600027B770C0B2002801D1012600E0F2
:100DC0000026C0B2012801D1012700E000273E43E0
:100DD000F6B2002E06D03C4E36684FF47A777E434A
:100DE000350005E0394E36684FF47A777E4335009A
:100DF0000E01B5FBF6F63200C0B2324E56F8206056
:100E0000367816F0E006340092B2160A16F01F0685
:100E10002643C0B22B4F57F820703E70C0B2294E07
:100E200056F8206072706E010F01B6FBF7F692B2B1
:100E3000B6EB42163300C0B2224E56F82060B67AA6
:100E400016F0E0063400C0B21E4E56F8206013F0D3
:100E50001F072743B772C0B21A4E56F82060F678C3
:100E600056F00C06C0B2174F57F82070FE70F0BC59
:100E70007047C0B2134A52F8202012791206F8D5F2
:100E8000C0B2104A52F82020D17170473C90044003
:100E900038900440348004400CB0044010B004404A
:100EA0000CC0044008C0044040B0044044B00440BA
:100EB00064D0044060D004402880044024D0044022
:100EC00020D004409004FF1FA804FF1FB004FF1FA0
:100ED0002DE9F8432448254988420DD0002080465A
:100EE000B8F5826F08D22048204951F8281040F800
:100EF000281018F10108F3E71B4800F049F81C48D6
:100F000007001C4806001C480400A01B8046404601
:100F1000B0F10108002804D030783870761C7F1CAE
:100F2000F5E71648814616480500B5EB09008046EE
:100F30004046B0F10108002805D0002089F80000E3
:100F400019F10109F4E70F480F49104A531A98465E
:100F50004346B3F10108002B04D00B780370491C01
:100F6000401CF5E7BDE8F1830000FF1F0000000012
:100F70006004FF1F0C13000054130000A804FF1F9F
:100F8000B404FF1F1004FF1FBC1200000C1300006C
:100F900026490860704738B504005C2C02DB244801
:100FA000FFF7EDFC202094FBF0F00500002D03D0AE
:100FB000022D27D013D337E00120202194FBF1F23A
:100FC00002FB114290401B4908600120202194FB44
:100FD000F1F202FB114290401749086024E0012021
:100FE000202194FBF1F202FB11429040134908606A
:100FF0000120202194FBF1F202FB114290401049A4
:10100000086011E00120202194FBF1F202FB114263
:1010100090400C4908600120202194FBF1F202FB72
:10102000114290400849086031BD000008ED00E021
:101030005413000080E200E000E100E084E200E000
:1010400004E100E088E200E008E100E030B4C9B269
:10105000C0B2264C54F82040D2B24FF480751543EC
:1010600044F82150D40705D5D2B2032A02D0D2B217
:10107000132A0DD1C0B21E4C54F8204064690125DA
:101080008D40AC43C0B21A4D55F820506C612AE037
:10109000C0B2174C54F82040646901258D402C43A0
:1010A000C0B2134D55F820506C61DBB2012B0DD14D
:1010B000C0B20F4C54F82040246801258D402C43C9
:1010C000C0B20B4D55F820502C600CE0C0B2084C5B
:1010D00054F82040246801258D40AC43C0B2044D33
:1010E00055F820502C6030BC704700007404FF1F7E
:1010F0006004FF1F38B504000D001748006850F465
:1011000000001549086015480068800880001349F0
:101110000860E4B2200112494550E4B2104810EBD7
:101120000410C06850F00100E4B20D4911EB041145
:10113000C860E4B20A4810EB0410806850F0030065
:10114000E4B2074911EB04118860E4B214F14400E1
:10115000FFF721FF31BD00003C80044000700340D8
:101160000071034016480068C0F34040C00706D530
:101170001348006830F400301149086005E0104859
:10118000006850F400300E49086070470D48006850
:1011900050F001000B49086009480068C0F3404066
:1011A000C00706D50648006830F4003004490860DE
:1011B00005E00348006850F40030014908607047BA
:1011C00000F00F400C71034080B51148006850F4E6
:1011D00078500F490860C820FFF7FAFB0D490860F6
:1011E0000C4800684FF47A7148430B4908600A487C
:1011F00000680A490968C1F30361491CB0FBF1F0BA
:10120000074908604FF496410120FFF75BFD01BDDF
:1012100038800440AC04FF1FA804FF1F4480044032
:10122000B004FF1F80B572B60123012211210020F6
:10123000FFF70CFF0D48006830F400300B490860E0
:101240004FF4FA7000F016F80848006850F40030C7
:1012500006490860064800684FF4FA7101FB00F186
:101260000020FFF747FF62B6FEE700BF00F00F4027
:10127000B004FF1F0D49096851F001010B4A1160CC
:101280000C4908600C4905220A600949096851F0B7
:101290000101074A1160064909680906FBD504499E
:1012A000096849084900024A1160704738800440C3
:1012B000000004400800044004000440F0B4114E53
:1012C000366834000F4E366856F47F060D4F3E6088
:1012D0000E0616F0706656EA0076170517F47007CA
:1012E0003E431F0417F470273E43074F3E6000261D
:1012F0003500EDB29D4201D26D1CFAE7014E34601B
:10130000F0BC704700F001404480044000F00F4002
:1013100040F00F4080F00F40C0F00F4000F10F4050
:101320000090044000A0044000B0044000C004400D
:1013300000D004400B1F00000009000000A0064080
:1013400000B0064000C0064000D0064000A00E409D
:1013500000B00E400A4552522120496E76616C69F8
:1013600064204952512076616C75652070617373F9
:10137000656420746F20656E61626C6520697271AE
:101380002066756E6374696F6E210A0080B500F087
:1013900009F80A4800884FF6FE710840074908809E
:1013A00001BD000072B606484CF22051018004488D
:1013B0004DF62811018062B67047000000200540FC
:1013C0000E20054010B5084979441C31074C7C4477
:1013D0001A34A14206D0081D0A68511888470146F0
:1013E000A142F8D110BD00BF2C0000003800000061
:1013F00050F8041B61B150F8042BD30744BFA9F186
:1014000001039A18002342F8043B091FFAD1EFE7C1
:1014100070470000DDFFFFFF0C000000A804FF1F65
:10142000000000000120C046002801D0FFF7CAFFDD
:101430000020FFF7F7FE00F000F800F001B8000010
:101440000746384600F002F8FBE7000080B5C046CA
:10145000C046024A11001820ABBEFBE7260002007E
:1014600080B5FFF793FFFFF733FDFFF7ADFEFFF702
:10147000D9FEFEE710B504002100C9B20120FFF734
:10148000F8FC10BDC046C046C046C046FFF7CAFFC4
:04000005000014855E
:00000001FF
