:10000000F8FF002011040000B9180000230A0000C6
:10001000B9180000B9180000B9180000B91800009C
:10002000B9180000B9180000B9180000B91800008C
:10003000B9180000B9180000210A00001F0A0000CA
:10004000A50B0000B9180000B9180000B91800008D
:10005000830B0000B9180000B9180000B91800009F
:10006000B9180000B9180000B9180000B91800004C
:10007000B9180000B9180000B9180000B91800003C
:10008000B9180000B9180000B9180000B91800002C
:10009000B9180000B9180000B9180000B91800001C
:1000A000B9180000B9180000B9180000B91800000C
:1000B000B9180000B9180000B9180000B9180000FC
:1000C000B9180000B9180000B9180000B9180000EC
:1000D000B9180000B9180000B9180000B9180000DC
:1000E000B9180000B9180000B9180000B9180000CC
:1000F000B9180000B9180000B9180000590900002B
:10010000B9180000B9180000B9180000B9180000AB
:10011000B9180000B9180000B9180000B91800009B
:10012000B9180000B9180000B9180000B91800008B
:10013000B9180000B9180000550B0000570B00005B
:10014000B9180000B9180000B9180000B91800006B
:10015000870900007B090000F70A0000B9180000B9
:10016000B9180000B9180000B9180000B91800004B
:10017000B9180000B9180000B9180000B91800003B
:10018000B9180000B9180000B9180000B91800002B
:10019000B9180000B9180000B9180000B91800001B
:1001A000D70A0000C30B0000310A0000B918000094
:1001B000B9180000B9180000B9180000B9180000FB
:1001C000B9180000B9180000B9180000B9180000EB
:1001D000B9180000B9180000B9180000B9180000DB
:1001E000B9180000B9180000B9180000B9180000CB
:10040000FFFFFFFFFFFFFFFFFFFFFFFFFEFFFFFFFD
:1004100062B64FF000004FF000014FF000024FF0C5
:1004200000034FF000044FF000054FF000064FF0BE
:1004300000074FF000084FF000094FF0000A4FF09E
:10044000000B4FF0000C01F0C9FAFEE710B50C46A6
:100450001168012902D0022904D008E05168C0B215
:10046000884704E0916808709068401C906020689C
:10047000401C206010BD30B4002400F8014B002A5D
:10048000096812D091B191FBF3F203FB121100291C
:1004900046BFC94301F1310501F130051146641C25
:1004A00000F8015B0029EED114E019B93021017088
:1004B00001240FE0B1FBF3F203FB12110A2934BF50
:1004C00001F1300501F137051146641C00F8015BAC
:1004D0000029EFD1204630BC704770B514461D4648
:1004E000884214DA0E1A2868012808D0022809D197
:1004F000A96830200870A868401CA86002E030207D
:10050000696888472068401C2060761EEBD170BD6A
:1005100070B514461D46884214DA0E1A2868012860
:1005200008D0022809D1A96820200870A868401CBA
:10053000A86002E02020696888472068401C20608D
:10054000761EEBD170BD2DE9F04F8DB00546002031
:10055000934600900C4604E02A4600A9FFF776FF78
:10056000641C2078002800F0D881252826D00A288D
:10057000F2D12868012808D0022809D1A9680D20E5
:100580000870A868401CA86002E00D2069688847D0
:100590000098401C00902868012808D0022809D142
:1005A000A9680A200870A868401CA86002E00A2018
:1005B000696888470098401C0090D1E7002701E057
:1005C00047F0100714F8010F20280ED02328F7D089
:1005D0002B2807D02D2802D0302809D00BE047F077
:1005E0000107EFE747F00207ECE747F00407E9E708
:1005F00047F00807E6E7611E4FF0000805E008EB4A
:10060000880200EB4200A0F1300811F8010FA0F1C0
:100610003002092AF3D92E2804D111F8010F3038FD
:100620000928FAD94C1E14F8010F4C2818BF682865
:1006300002D06C2818BF641E14F8010F582867D028
:10064000622800F00781632800F03781642818BF12
:10065000692811D06E2800F05B816F2800F0F580CA
:10066000702800F0FC80732800F02B81752800F0C2
:10067000FB8078284CD06FE75BF8040B02900A23CC
:10068000012202A903A8FFF7F6FE824603A80AEB9F
:1006900000090298002848BF2D2606D4B80748BF95
:1006A0002B2602D4780703D520260AF1010A00E0A0
:1006B0000026380708D5002E00F0E5802A4600A95C
:1006C0003046FFF7C3FEDEE0F8070CD42B4600AA45
:1006D00041465046FFF71CFF002E00F0E4802A46FA
:1006E00000A93046E6E0002E00F0DD8028680128F1
:1006F00007D0022808D1A8680670A868401CA86026
:1007000002E03046696888470098401C0090CAE0C3
:1007100010235BF8040B0190002201A903A8FFF746
:10072000AAFE824603A80AEB0009002638072ED548
:10073000F80624D52868012808D0022809D1A9681C
:1007400030200870A868401CA86002E0302069686A
:1007500088470098401C00902868012808D002288B
:1007600009D1A96878200870A868401CA86002E038
:100770007820696888470098401C009001262B4625
:1007800000AA41465046FFF7A8FEC24632E0F807ED
:1007900030D4F80648BF0AF1020A2B4600AA4146A7
:1007A0005046FFF7B5FEF80624D52868012808D082
:1007B000022809D1A96830200870A868401CA860E8
:1007C00002E03020696888470098401C0090286843
:1007D000012808D0022809D1A96878200870A868E3
:1007E000401CA86002E07820696888470098401C97
:1007F00000900126F80656D5002E54D1286801280D
:1008000008D0022809D1A96830200870A868401CC7
:10081000A86002E03020696888470098401C00907A
:100820002868012808D0022809D1A9687820087012
:10083000A868401CA86002E0782069688847009892
:10084000401C00900AF1020A2DE05BF8040B0190B5
:1008500008230DE05BF8040B0190022308E05BF82D
:10086000040B0190102303E05BF8040B01900A23B2
:10087000002201A903A8FFF7FEFD824603A80AEBA8
:100880000009380707D52B4600AA41465046FFF716
:1008900024FEC24607E0F80705D42B4600AA4146CD
:1008A0005046FFF735FE99F8000038B319F80109F2
:1008B0002A4600A9FFF7CAFDF5E75BF8040BC0B2B2
:1008C0004AE65BF8049BB9F1000F3FF449AE484695
:1008D00000F038F88246F8070CD42B4600AA4146AF
:1008E0005046FFF715FE05E019F8010B2A4600A94E
:1008F000FFF7ACFD99F800000028F5D1F8077FF567
:100900002FAE2B4600AA41465046FFF701FE27E6D0
:100910005BF8040B0099016022E600980DB0BDE879
:10092000F08F0EB400B584B00121009105AA0449EE
:100930000191014600A8FFF706FE04B05DF810FB28
:10094000FD190000002108B97047491C10F8012B5F
:10095000002AFAD10846704710B572B6012000F09F
:1009600003FA04460FF2A021012000F00FFA2146FD
:10097000012000F001FA62B610BD9748016841F00D
:100980000101016070479548016841F00101016073
:1009900005229348C188491CC18089B291FBF2F2BB
:1009A00002EB82028A1A04BF012202700A2291FB22
:1009B000F2F202EB8203B1EB430204BF0122427068
:1009C0000F2291FBF2F2C2EB02128A1A04BF01223B
:1009D0008270142291FBF2F202EB8203B1EB8302EC
:1009E00004BF0122C270502291FBF2F202EB82039B
:1009F000B1EB031204BF012202714FF47A7291FB32
:100A0000F2F24FF47A7303FB12120AB90122427117
:100A100041F27072914204BF0021C180704770475B
:100A2000704710B50FF2F4142046FFF77AFFFBE78A
:100A30006C496D480A68D20510D50A6842F4807284
:100A40000A60028912B90122027007E00E2A05DB52
:100A50000022028102704278521C42700A6892059C
:100A600010D50A6842F400720A60428912B9012264
:100A7000827007E00E2A05DB002242818270C27874
:100A8000521CC2700A68520510D50A6842F480628E
:100A90000A60828912B90122027107E00E2A05DB81
:100AA0000022828102714279521C42710A68120549
:100AB00010D50A6842F400620A60C18911B90121A7
:100AC000817170470E2905DB0021C1818171C179D7
:100AD000491CC171704745480168C90703D50168C1
:100AE00041F0010101600168490503D5016841F445
:100AF0008061016070473E48016841F0010101607A
:100B000039480189027802B1491C89B29729A4BFEA
:100B10000021017001818278418902B1491C89B2AA
:100B20009729A4BF0021817041810279818902B196
:100B3000491C89B29729A4BF002101718181827962
:100B4000C18902B1491C89B29729A4BF00218171D2
:100B5000C1817047704738B5264C656C00206064D1
:100B6000E80707D5206820F0400020600FF2CC0095
:100B7000FFF7D7FEA80703D5A06820F04000A060CB
:100B800031BD10B51C4CA06940F01000A0610420DC
:100B900000F04EF92068194920F010002060012073
:100BA000087010BD80B50FF2A400FFF7BAFE12481E
:100BB000816941F001018161016841F00101016039
:100BC00001BD0F48016841F0800101600D480178C6
:100BD000491C0170704700001C7103400C710340F8
:100BE000C004FF1FA0C00440C804FF1FA0A0044011
:100BF0002C7103400C9003400C800040D804FF1F70
:100C000000000440D904FF1F0AC4E3B7A2CBCDB54E
:100C1000C4CAFDBEDDCEAAA3BA0000000A2A2A2A51
:100C20002AD3B2BCFEC9CFB7C3B4EDCEF321212184
:100C30002A2A2A2A2A0D0A0A000000000A46544DD0
:100C400031B7A2CBCDD6D0B6CF0A0000444D415F1C
:100C50004348305F48616E646C65720A00000000B2
:100C6000F0B4052841D8DFE800F0030D17212C3639
:100C70004E4A4FF44073536013604D4AD36843F4B7
:100C800080631CE04B4A4FF4407313605360484A42
:100C9000D36843F4006312E0474A4FF44073536053
:100CA0001360434AD36843F4805308E0414A4FF449
:100CB0004073536393633E4AD36843F40053D36055
:100CC00013E03E4A4FF4407353641364384A136888
:100CD00043F4806308E0394A4FF440735360136073
:100CE000334A136843F400631360354B024653F8EC
:100CF0002240E57805F0F305E570002453F8225012
:100D0000AC70441EA441012A18BF00204FF47A752C
:100D100050EAD47014BF2B482B480068684353F83E
:100D200022502E780901B0FBF1F427043F0E06F0A3
:100D3000E00607F01F073E432E70400153F8225093
:100D40006C70B0FBF1F053F82240A57A05F0E00595
:100D500000F01F002843A07253F82200C17841F030
:100D60000C01C170F0BC7047154951F8202013796F
:100D70009B06FCD5D0797047114A52F8203093F881
:100D800004C05FEA0C6CFAD5D971704730B40C4AD4
:100D900004E025792D06FCD5E371491C0B7852F847
:100DA0002040002BF5D130BC704700003890044043
:100DB000288004400CB0044008C0044020D0044007
:100DC0006004FF1FB404FF1FBC04FF1F2D4908600F
:100DD000704710B504465C2CA4BF0FF2B800FFF7B3
:100DE000A0FD201104EBD060401103D0022815D0E3
:100DF0000AD310BD0121A4EB401001FA00F02249F2
:100E000008602249086010BD0121A4EB401001FADE
:100E100000F01D4948601D49486010BD0121A4EB48
:100E2000401001FA00F0184988601849886010BD28
:100E300010B504465C2CA4BF0FF29000FFF771FDC3
:100E4000201104EBD060401103D0022811D008D348
:100E500010BD0121A4EB401001FA00F00C4908601C
:100E600010BD0121A4EB401001FA00F008494860D0
:100E700010BD0121A4EB401001FA00F00449886084
:100E800010BD000008ED00E080E200E000E100E0BD
:100E900080E100E00A4552522120496E76616C697A
:100EA00064204952512076616C75652070617373BE
:100EB000656420746F20656E61626C652069727173
:100EC0002066756E6374696F6E210A000A4552527E
:100ED0002120496E76616C69642049525120766107
:100EE0006C75652070617373656420746F2064692C
:100EF0007361626C65206972712066756E637469D6
:100F00006F6E210A0000000010B4934909684CF28A
:100F10005132914238BF002104D3904A914234BFEC
:100F2000012102218E4B1C684FF40072002804D16D
:100F300044F040041C608B4B03E044F080041C60D0
:100F4000894B1A605A608901884A52F8203041F072
:100F500011015970802152F82000817010BC704737
:100F600081B00120ADF800004CF2503005E000BF28
:100F7000BDF80010491CADF80010BDF8001081420A
:100F8000F5DB01B0704738B5784B53F82040A578B1
:100F900045F01005A570490053F82040A57845F0AC
:100FA0002005A57053F82040217153F82040E578C2
:100FB000AD07FCD5E57845F00205E57053F8204013
:100FC000227153F82020D478A407FCD5D47844F0BB
:100FD0000204D47041F0010153F82020947844F0C9
:100FE0000404947053F82020117153F82010CA782B
:100FF0009207FCD5CA7842F00202CA7053F820105A
:101000008A7802F0EF028A7053F820108A7842F052
:1010100008028A7053F820100A79CA789207FCD522
:10102000CA7842F00202CA7053F820108A7802F09F
:10103000DF028A7053F820108A7802F0EF028A707B
:1010400053F820000479FFF78BFF204632BD78B4B7
:10105000464C54F82050AE7846F01006AE70490069
:1010600054F82050AE7846F02006AE7054F8205068
:10107000297154F82010CD78AD07FCD5CD7845F016
:101080000205CD7054F820100A7154F82010CA7867
:101090009207FCD5CA7842F00202CA7054F82010B8
:1010A0000B7154F82010CA789207FCD5CA7842F028
:1010B0000202CA7054F820108A7802F0DF028A70A7
:1010C00054F82000817801F0EF01817071BC47E78E
:1010D00010B52A221C210020FFF755FF00F0FE0367
:1010E0002A221C210020FFF7B2FF214C0E221C21D6
:1010F0000020FFF748FF00F0FC00207003460E229E
:101100001C210020FFF7A3FF2A221C210020FFF74B
:101110003AFF00F05E0040F018032A221C21002054
:10112000FFF795FF2A221C210020FFF72CFF00F07B
:10113000FC031C2238210020FFF789FF2A221C21F2
:101140000020FFF720FFBDE8104040F001032A22F5
:101150001C2100207BE70000BC04FF1FA1860100CA
:101160003480044020C0044028B004405004FF1FD5
:10117000DA04FF1F10B101284BD070476B48426A58
:1011800042F000624262026822F090020260002295
:101190000260A1F108020A2A00F28080DFE802F072
:1011A0005D5D0606131320207E2D2D00026A890046
:1011B00042F4007201F18041026201F592210020A7
:1011C00041F80C0C70478900026A42F4806201F118
:1011D0008041026201F59421002041F8280C7047FB
:1011E0008900026A42F4006201F18041026201F565
:1011F0009621002041F8380C70478900026A42F4B9
:10120000005201F18041026201F59A210020C8617B
:1012100070474648826942F000628261026822F4A7
:1012200010420260002202600A1F0D2A36D8DFE851
:1012300002F0070707071414212121212121352E4F
:10124000026A890042F4005201F18041026201F514
:101250009A21002041F8100C7047026A42F4806223
:101260000262880000F1804000F5942028380021B7
:1012700081607047026A42F480620262880000F175
:10128000804000F594202838002101617047016AF0
:1012900041F400710162002025490860704770B573
:1012A00005461E46002400F015F830000ED0014619
:1012B000214A52F8252013681B06F9D513691C1919
:1012C000136823F080031360491EF1D1B4FBF0F0E2
:1012D00080B270BD174B01F01F0141F0400119723F
:1012E00003EB8000910001F00C0141F050011970F6
:1012F00045F27862042159709A8041F23421598074
:10130000006993F800C0C0F808C04FF0040CC0F8A2
:101310000CC08161C26199790162D9794162D96851
:101320000165197A0160597A41607047188004405C
:10133000449004401004FF1F2004FF1FDFF800F05A
:101340007904FF1F70B5002800F08C8030281ED073
:10135000322826D0602827D0642849D06E2826D08D
:10136000782827D07D2828D0822829D08C282AD0F8
:1013700096282BD0A0282CD0AA282CD0B4282DD049
:10138000C8282ED0E1282ED0FA282ED02FE0182100
:101390000022574C217062700021A170332829DA95
:1013A00034E018210122F4E718211822F1E718216E
:1013B0001F22EEE713211822EBE713211A22E8E798
:1013C00013211C22E5E70E211222E2E70E2115224D
:1013D000DFE70E21EFE70E211B22DAE70E211E22A6
:1013E000D7E70C21EDE70B21F9E70A21E0E76420BC
:1013F0001821E3E76528B8BF012107DB9728B8BFAC
:10140000022103DBC928B4BF03210F21E1701A2890
:10141000E1782171B8BF002023DB3328B8BF012059
:101420001FDB4C28B8BF02201BDB6528B8BF032098
:1014300017DB7E28B8BF042013DB9728B8BF052030
:101440000FDBB028B8BF06200BDBC928B8BF0720C8
:1014500007DBE228B8BF082003DBFB28B4BF092064
:101460000F2060713221224C224E6078183080B2F9
:1014700048432178491C89B290FBF1F50020707037
:101480001D48016841F0805101601C48017841F01D
:101490008001017098203070B079C006FCD4B0791A
:1014A000C0F381000228FAD1207800F01F003071CB
:1014B0000020707163792279E178A078FFF73EFF10
:1014C000607800F01F0040F040007071B079800635
:1014D000FCD5B0794006FCD5307800F03F00307084
:1014E000B079C0F381000328FAD1E8B270BD00BF23
:1014F0005804FF1F004006403480044008C00740E5
:101500002DE9F84372B64FF4E1310020FFF7A8FB54
:10151000012301221121002000F052F8214C216802
:10152000002000F07BF8206864214143012000F096
:1015300075F800F093F80020FFF7E6FCFFF7C8FD10
:1015400062B6194C194D1A4E1A4FDFF86C80DFF84D
:101550006C9000F08EF899F80000012804BF00207C
:1015600089F8000098F80000012804BF002088F8DE
:1015700000003878012804BF002038703078012836
:1015800004BF0020307028780128E2D1206821684B
:10159000C0F3404080F0010060F351412160002021
:1015A0002870D6E7BC04FF1F00F00F40C504FF1FE2
:1015B000C304FF1FC204FF1FC104FF1FC004FF1F9D
:1015C00070B4154C04EB800542F480766D6945F8E3
:1015D0002160D50703D5032A18BF132A0AD154F86E
:1015E00020004269012303FA01F122EA010141616D
:1015F00070BC704754F82000012202FA01F14269E0
:101600000A434261012B02680CBF114322EA010127
:10161000016070BC704700002804FF1F0C4A13686B
:1016200043F4000313600B4A13689B089B0013608C
:10163000FFE70201084BD1504430D118CA6842F08C
:101640000102CA608A6842F003028A60FFF7C1BBE8
:101650003C800440007003400071034080B50821C5
:101660000020FFF787FDBDE8044009210020FFF7B7
:1016700081BD38B504460D460A2303220821002007
:10168000FFF70DFE20800A23032209210020FFF727
:1016900006FE608005F10A00C0B232BD62B38B075E
:1016A00008D0521E11F8013B00F8013B00F02480E5
:1016B0008B07F6D1830740F0208000BF103A07D394
:1016C00030B4B1E83810103AA0E83810F9D230BC84
:1016D000530724BFB1E80810A0E8081044BF51F830
:1016E000043B40F8043BD20724BF31F8022B20F81A
:1016F000022B44BF0B7803707047083A07D3B1E858
:101700000810083A40F8043B40F804CBF7D25307DE
:10171000E4E750F8041B61B150F8042BD30744BF31
:10172000A9F101039A18002342F8043B091FFAD1DA
:10173000EFE7704710B51149114C8C4204D04FF4BB
:1017400082522046FFF7BAFF2046FFF73FFB0D49C4
:101750000D48421A1CBF0D48FFF7A0FF0C480D4969
:10176000091A18BF00F01EF80B490C48421A04D0A1
:10177000BDE810400A48FFF791BF10BD000000000F
:101780000000FF1F0C180000741800001004FF1F59
:10179000B404FF1FDB04FF1FF81800003419000019
:1017A0007804FF1F002200F001B80000401810F07C
:1017B000030308D0C91A1FD3DB0748BF00F8012D67
:1017C00028BF20F8022D130030B4144615461039F6
:1017D00028BF20E93C00FAD8490728BF20E90C00BF
:1017E00048BF40F8042D890028BF20F8022D48BFCB
:1017F00000F8012D30BC7047C91818BF00F8012D42
:10180000CB0728BF00F8012D704700000000000042
:1018100000000000000000000000000000B00340D5
:1018200000B00B4000F00F4040F00F4080F00F4040
:10183000C0F00F4000F10F400090044000A00440B1
:1018400000B0044000C0044000D0044000600640E6
:10185000007006400B1F00000009000000A00640B9
:1018600000B0064000C0064000D0064000A00E4078
:1018700000B00E4038B50E4D0E4C286840F478503C
:101880002860C820FFF75EFD60604FF47A7111FB9D
:1018900000F02060E968C1F30361491CB0FBF1F07E
:1018A000A0604FF4E131BDE834400120FFF7D8B922
:1018B00038800440B404FF1F024801780FF208008A
:1018C000FFF72FB804ED00E00A2A2A2A2A64656689
:1018D00061756C745F69737220656E74657265649E
:1018E000206F6E20766563746F722025642A2A2A21
:1018F0002A2A0D0A0A00000070B4090601F070617E
:1019000041EA0070094C25682668110501F4700150
:101910000843190401F47021084346F47F06044982
:1019200026600860256070BC704700BF00F0014071
:101930004480044080B500F007F8084801884FF65D
:10194000FE721140018001BD054872B64CF2205173
:1019500001804DF62811018062B6704700200540D5
:101960000E20054010B5074979441831064C7C44D7
:10197000163404E00A68081D511888470146A14240
:10198000F8D110BD080000001400000087FDFFFF23
:1019900028000000B404FF1F000000000120C04622
:1019A000002801D0FFF7DEFF0020C046C046FFF749
:1019B000A7FD00F000F800F001B800000746384627
:1019C00000F002F8FBE7000080B5C046C046024ABE
:1019D00011001820ABBEFBE72600020080B5FFF720
:1019E000A9FFFFF7A7FEFFF745FFFFF789FDFEE719
:1019F000C046C046C046C046FFF7D0FF01460120A2
:041A0000FFF7BAB979
:04000005000019F1ED
:00000001FF
