:10000000F8FF002011040000194300002B38000005
:100010001943000019430000194300001943000070
:100020001943000019430000194300001943000060
:100030001943000019430000293800002738000048
:10004000CD3A000019430000194300001943000095
:10005000A53A0000194300001943000019430000AD
:100060001943000019430000194300001943000020
:100070001943000019430000194300001943000010
:100080001943000019430000194300001943000000
:1000900019430000194300001943000019430000F0
:1000A00019430000194300001943000019430000E0
:1000B00019430000194300001943000019430000D0
:1000C00019430000194300001943000019430000C0
:1000D00019430000194300001943000019430000B0
:1000E00019430000194300001943000019430000A0
:1000F00019430000194300001943000011370000A4
:10010000194300001943000019430000194300007F
:10011000194300001943000019430000194300006F
:10012000194300001943000019430000194300005F
:100130001943000019430000473A0000493A000003
:10014000194300001943000019430000194300003F
:100150004737000035370000A1390000194300007F
:10016000194300001943000019430000194300001F
:10017000194300001943000019430000194300000F
:1001800019430000194300001943000019430000FF
:1001900019430000194300001943000019430000EF
:1001A00065390000EF3A00003738000019430000BD
:1001B00019430000194300001943000019430000CF
:1001C00019430000194300001943000019430000BF
:1001D00019430000194300001943000019430000AF
:1001E000194300001943000019430000194300009F
:10040000FFFFFFFFFFFFFFFFFFFFFFFFFEFFFFFFFD
:1004100062B64FF000004FF000014FF000024FF0C5
:1004200000034FF000044FF000054FF000064FF0BE
:1004300000074FF000084FF000094FF0000A4FF09E
:10044000000B4FF0000C00F04FFEFEE770B504000B
:100450000D0016003068012802D0022805D00AE0FD
:100460002000C0B27168884705E0B0680470B068C9
:10047000401CB060FFE72868401C286070BD2DE973
:10048000F04704005FF0000A5046A1465FF0000A02
:1004900089F800A019F10109002A1FD0D1F800A0A5
:1004A0005546002D05D15FF0300A89F800A0401CA8
:1004B00038E0002D36D095FBF3FA564603FB165A6A
:1004C0005746002F02D5FF43313700E03037350063
:1004D00089F8007019F10109401CEAE7D1F800A081
:1004E000D446BCF1000F05D15FF0300A89F800A0B6
:1004F000401C17E0BCF1000F14D0BCFBF3FAD64649
:1005000003FB1ECAD046B8F10A0F02D218F1300818
:1005100001E018F13708F44689F8008019F1010963
:10052000401CE7E7BDE8F0872DE9F34F87B093461D
:100530000020060007980700002038707F1C089AEA
:10054000D2E90001CDE90201DDE90223002000210A
:1005500000F0ECFA03D130203870761C5AE004AA7F
:10056000DDE9020100F0F2FA80468946002005002C
:10057000062D0CDA584600F045FB02000B00404601
:10058000494600F057FB804689466D1CF0E7002085
:10059000DFF8901542464B4600F02EFC00F0A0FC20
:1005A000824600200500062D14DA9AFBFBF000902D
:1005B00000980BFB10A00400002C03D5E04310F1C1
:1005C000310400E03034009882463C707F1C761C79
:1005D0006D1CE8E72E2038707F1C761CDDE90401D5
:1005E00000F07EFC8246BAF1000F13D09AFBFBF0BC
:1005F000009000980BFB10A00400002C03D5E043F2
:1006000010F1310400E03034009882463C707F1CC9
:10061000761CE8E7300009B0BDE8F08F2DE9F04125
:1006200004000D0016001F00A046A84507DA3A0096
:1006300031003020FFF70AFF18F10108F5E7BDE8A7
:10064000F0812DE9F04104000D0016001F00A046C6
:10065000A84507DA3A0031002020FFF7F7FE18F12D
:100660000108F5E7BDE8F0812DE9F24F94B081462D
:1006700014000020009014980500287804900028A9
:1006800000F039820498252813D004980A2805D050
:100690004A4600A90498FFF7D9FE09E04A4600A996
:1006A0000D20FFF7D3FE4A4600A90A20FFF7CEFE31
:1006B0001FE20020070000200390039800281FD1AC
:1006C0006D1C287820280ED0232812D02B2807D084
:1006D0002D2802D0302809D00EE057F00107ECE7B2
:1006E00057F00207E9E757F00407E6E757F0080775
:1006F000E3E757F01007E0E76D1E01200390DCE709
:1007000000208046002003900398002810D16D1C23
:10071000287804903038092806D80A20049900FB6C
:100720000810B0F13008EFE76D1E01200390EBE7F1
:100730006D1C28782E280ED10020039003980028E5
:100740000AD16D1C28783038092800D8F6E76D1ECC
:1007500001200390F2E76D1E6D1C28784C2806D00E
:10076000682802D06C2801D002E002E001E000E03D
:100770006D1E6D1C28780490462877D0582800F00C
:10078000D380622800F02C81632800F074816428F3
:1007900016D066286AD0692812D06E2800F09D8194
:1007A0006F2800F01281702800F02581732800F076
:1007B0006B81752800F02A81782800F0B58093E1DC
:1007C00020680690241D0A23012206A90BA8FFF722
:1007D00056FE06000BA8301883460698002803D55D
:1007E0002D208246761C0DE0B80703D52B208246CB
:1007F000761C07E0780703D520208246761C01E0AE
:100800000020824600200190380711D5BAF1000F70
:1008100004D04A4600A95046FFF718FE0120019077
:100820004B4600AA41463000FFF7F8FE464611E06D
:10083000F8070FD44B4600AA41463000FFF701FFEE
:10084000BAF1000F04D04A4600A95046FFF7FEFD5A
:10085000012001900198002807D1BAF1000F04D0BF
:100860004A4600A95046FFF7F1FDEEE0E41D34F0E2
:100870000704D4E90001CDE9080108340A2208A9D7
:100880000BA8FFF751FE06000BA830188346DDE9E0
:1008900008010022002300F049FB03D22D208246EC
:1008A000761C0DE0B80703D52B208246761C07E0A6
:1008B000780703D520208246761C01E0002082467E
:1008C00000200190380711D5BAF1000F04D04A4634
:1008D00000A95046FFF7BAFD012001904B4600AA3F
:1008E00041463000FFF79AFE464611E0F8070FD464
:1008F0004B4600AA41463000FFF7A3FEBAF1000FB5
:1009000004D04A4600A95046FFF7A0FD01200190FF
:100910000198002807D1BAF1000F04D04A4600A977
:100920005046FFF793FD90E020680290241D1023AD
:10093000002202A90BA8FFF7A2FD06000BA83018A1
:10094000834600200190380715D5F8060BD54A4696
:1009500000A93020FFF77AFD4A4600A97820FFF76A
:1009600075FD012001904B4600AA41463000FFF77B
:1009700055FE464618E0F80716D4F80600D5B61C12
:100980004B4600AA41463000FFF75BFEF8060BD548
:100990004A4600A93020FFF759FD4A4600A97820B1
:1009A000FFF754FD01200190F8060DD501980028AD
:1009B0000AD14A4600A93020FFF748FD4A4600A95F
:1009C0007820FFF743FDB61C3FE020680290241D0D
:1009D0000823002202A90BA8FFF751FD06001FE023
:1009E00020680290241D0223002202A90BA8FFF711
:1009F00046FD060014E020680290241D102300220A
:100A000002A90BA8FFF73BFD060009E02068029051
:100A1000241D0A23002202A90BA8FFF730FD0600BF
:100A20000BA830188346380707D54B4600AA414625
:100A30003000FFF7F3FD464607E0F80705D44B46C4
:100A400000AA41463000FFF7FCFD9BF8000000289B
:100A500008D04A4600A99BF80000FFF7F7FCBBF15D
:100A6000010BF2E7F80705D54B4600AA41463000D6
:100A7000FFF7E7FD3DE020780790241D4A4600A9D6
:100A80000798FFF7E3FC34E020680590241D0598E3
:100A9000002821D0059800F060FA0600F80705D478
:100AA0004B4600AA41463000FFF7CBFD0598007881
:100AB000002809D04A4600A905980078FFF7C6FC2F
:100AC0000598401C0590F1E7F80705D54B4600AAAC
:100AD00041463000FFF7B5FD0BE020680A90241D69
:100AE00000980A99086004E04A4600A90498FFF7B4
:100AF000ADFC6D1CC1E5009815B0BDE8F08F0EB4DB
:100B00007EB50400012000900748019007A8050069
:100B10002A00210000A8FFF7A7FD060030007EBCD8
:100B20005DF810FB0000E03FED44000090420CD166
:100B300041EA030C50EA4C0C07D0994205D14FF41E
:100B4000001C1CEB410F38BF8942704710B514469A
:100B500000F004F82260636010BD00BFC1F30A5CBE
:100B600040F2FE32BCEB020CCCBFDCF1350237E0C8
:100B7000BCF115031ADA9B415B0543FA0CF30B40F9
:100B80000022994319D0B1FA81FCACF10B0C414021
:100B900000FA0CF0CCF1200C61FA0CF14140CCF1E0
:100BA000210CCCEB135C01EB0C5170476FF0000291
:100BB000DA4020EA02020B469043F8B1B0FA80FC1A
:100BC0000CF1150C0021BCF11F0FE0D9ACF1200194
:100BD0008840CCEB1351491E00EB015100207047B7
:100BE000BCF1350F03DA01F00043002270470B46D9
:100BF00002464FF4001C1CEB430F02D803F00041E7
:100C000000207047010040F10980F446404200F0A6
:100C100005F851F000416047010000BF09D0B0FA6B
:100C200080F18840C91CC1F58461090501EBD02120
:100C300040057047B0B581EA030C0CF0004C40F25F
:100C4000FF7515EA11541DBF15EA1357AC42AF42A8
:100C500039E0E41923EA455343F48013C90241F013
:100C6000004141EA505EC7021100A7FB02020028C2
:100C70004FF00000EEFB01204FF00001E3FB0721E5
:100C800018BF42F00102401800214941E3FB0E0168
:100C9000A4F580640F0302D252004041494154F14F
:100CA00001046CDD470872F1004250F1000051EB85
:100CB0000451A1F580115CBF41EA0C01B0BD4CEAC2
:100CC00005510020B0BD05EA1357AC4214BFAF4236
:100CD00041E050EA410E1CBF52EA430E02E0614679
:100CE0000020B0BD24423C441BD15FEA070EF6D081
:100CF000090302BF01460020AEF1140EB1FA81F7DC
:100D0000AEEB070401FA07FE0C37C7F1200100FA29
:100D100007F7C8404EEA000E23EA455343F4801318
:100D2000A2E733F00043B3FA83F704BFB2FA82FEBE
:100D300077440B3FE41BB7F1200E2FBF02FA0EF3EE
:100D4000BB40C7F1200E22FA0EFE38BF43EA0E0365
:100D5000BA40641C82E750EA410E14BF52EA430EC7
:100D60006FF000014FF4001717EB430F8ABF1946CD
:100D700017EB410FB5E74CEA05510020B0BDD4F1A7
:100D80000104B4F120070FDAC4F12007520828BF8C
:100D900042F0010210FA07F501FA07F7E1BF2A4312
:100DA000E0403843E1400FE0352C98DCC7F12004E7
:100DB00052EA400220FA07F218BF42F0010231FA6B
:100DC00007F0A1400A43002172F1004250F10000F7
:100DD00051EB0C01B0BD50F8041B61B150F8042B6D
:100DE000D30744BFA9F101039A18002342F8043B3A
:100DF000091FFAD1EFE7704770B44FF0004591EA50
:100E0000030C44BF6B4000F0B9B800BF841A71EB0B
:100E1000030603D2001BB141121973414FF4001CA9
:100E20001CEB410F34BF7CEB430443E00C0DA4EBFF
:100E30001356352E50DC45EAC323DB0A45EAC121AF
:100E4000C912B6F120050DDD63FA05F6EB4086EA1E
:100E50000305124218BF45F00105C01851F1000109
:100E60000CD213E062FA06F5F2405540F3415A40C5
:100E7000B340F3405A408018594107D349085FEA0C
:100E800030005FEA350528BF45F0010501F5801106
:100E9000420875F1004250F1000041EB045170BC72
:100EA0004FF4001C1CEB410F38BF70470020090DA8
:100EB000090570471CEB410F10D252EA43060BD0D4
:100EC000BCEB410F05D80C0DAB43661E342EB5DDCF
:100ED00002E0AB438018594170BC704770BC70474A
:100EE000F446400D40EAC120490006D200F00EF859
:100EF000004248BF6FF00040604700F007F84FF035
:100F0000004188428CBF08464042604740F00040A4
:100F1000490DA1F58061491C05D4D1F11F0154BFD1
:100F2000C840C01770474FF0000070474FF4001CD6
:100F30001CEB410F94BF1CEB430F09E041EA030C8B
:100F400050EA4C0C52EA0C0C03D2994208BF904272
:100F5000704714BF8B428242704701000A00002391
:100F6000002A01D1002007E01000421C0078002870
:100F700001D05B1CF8E7180070470000841A71EB81
:100F8000030604D26E40001BB141121973414FF4A5
:100F9000001C1CEB410F34BF7CEB430684E00C0DBE
:100FA000A4EB1356362E7DDC012E43DC45EAC32329
:100FB00043EA525312BFD20292025B08240545EA6B
:100FC000C12141EA5051D2EBC020994125D407D12B
:100FD000B0FA80F610FA06F164D00020203608E05E
:100FE000B1FA81F6B140C6F1200220FA02F21143B3
:100FF000B0404FEAF474B4EB465434F001064FEAC3
:1010000074040AD8D6F50016760D04F00044F040BA
:1010100061FA06F25040F1404840C00A40EA4150AF
:1010200021F0004128BF5FEA500550F1000044EB79
:10103000D12137E045EAC323DB0A45EAC121C90AC9
:10104000B6F120050EDD42EA0242120CC5F120067F
:1010500003FA06F6EB4042EA06056D42984161F15B
:1010600000010DE062FA06F5F240554063FA06FC15
:1010700082EA0C02F3405A406D42904161EB030159
:1010800011F4801F05D1641E620502D06D0040413D
:10109000494121F48011430875F1004350F10000EB
:1010A00041EB045170BC70471CEB410F15D223F08B
:1010B000004352EA43060BD04FEA4C0CBCEB410F05
:1010C00004D80C0D661E342EB7DDEBE7801A99416B
:1010D00050EA410608BF0021E4E708BF1CEB430FBC
:1010E00028BF6FF00001DDE780B500F08DFA00F059
:1010F000A7FA00F005FBDFF8E803FFF700FDDFF8D3
:10110000E4030068DFF8E0134979491CB0FBF1F013
:101110000090DFF8D0030068DFF8CC130979491C90
:10112000B0FBF1F3DFF8BC030068DFF8BC13C9784B
:10113000491CB0FBF1F2DFF8AC030168DFF8AC0347
:10114000FFF7DDFCDFF8A8030078400703D5DFF8E0
:10115000A403FFF7D4FCDFF898030078800703D5D9
:10116000DFF89403FFF7CBFCDFF884030078C007B7
:1011700003D5DFF88803FFF7C2FCDFF884030078AB
:10118000000603D5DFF87C03FFF7B9FCDFF8700336
:101190000078400603D5DFF87003FFF7B0FCDFF8F6
:1011A00060030078800603D5DFF86003FFF7A7FC33
:1011B000DFF84C030078400703D5DFF85403FFF74E
:1011C0009EFCDFF83C030078800703D5DFF844037A
:1011D000FFF795FCDFF828030078C00703D5DFF898
:1011E0003803FFF78CFCDFF83403FFF788FCDFF8E7
:1011F0003003DFF83013884204D0DFF82C03FFF708
:101200007EFC03E0DFF82403FFF779FC00F003F82D
:1012100000F0A4FAFEE780B5DFF8140300680009C7
:1012200010F0070000280BD0022813D00DD304289B
:1012300019D014D306281ED019D307281FD022E0B6
:10124000DFF8F002FFF75BFC20E0DFF8EC02FFF7CD
:1012500056FC1BE0DFF8E402FFF751FC16E0B8484B
:10126000FFF74DFC12E0B748FFF749FC0EE0B64827
:10127000FFF745FC0AE0B548FFF741FC06E0B4483B
:10128000FFF73DFC02E0B348FFF739FCA8480068CF
:1012900010F00F00022812D0042814D0052816D010
:1012A000062818D007281AD008281CD009281ED0D4
:1012B0000A2820D00C2822D00E2824D027E0A648C7
:1012C000FFF71DFC26E0A548FFF719FC22E0A44823
:1012D000FFF715FC1EE0A348FFF711FC1AE0A24837
:1012E000FFF70DFC16E0A148FFF709FC12E0A0484B
:1012F000FFF705FC0EE09F48FFF701FC0AE09E485F
:10130000FFF7FDFB06E09D48FFF7F9FB02E09C4874
:10131000FFF7F5FB86480068000B10F00F0000286F
:1013200003D0022809D004D30BE09648FFF7E7FB6F
:101330000AE09548FFF7E3FB06E09448FFF7DFFB80
:1013400002E09348FFF7DBFB00F06AF89148006881
:10135000000E10F00F00072806D0092808D00B282F
:101360000AD00F280CD00FE08B48FFF7C8FB0EE027
:101370008A48FFF7C4FB0AE08948FFF7C0FB06E094
:101380008748FFF7BCFB02E08648FFF7B8FB8648BA
:101390000068000203D58548FFF7B1FB1EE07D48D9
:1013A0000068000F002806D0072808D009280AD0B6
:1013B0000F280CD00FE07E48FFF7A1FB0EE07D4820
:1013C000FFF79DFB0AE07C48FFF799FB06E07A48AF
:1013D000FFF795FB02E07948FFF791FB784800683A
:1013E000000B10F00F00052806D0072808D00828A9
:1013F0000AD009280CD00FE07248FFF780FB0EE0FE
:101400007148FFF77CFB0AE07048FFF778FB06E0C5
:101410006F48FFF774FB02E06E48FFF770FB01BDF9
:10142000F8B503206C49087000206C490870002052
:101430006B49087000206B49087001206A490870E8
:1014400080206A490870694800780006FBD5684822
:1014500000780400674800780500674800780600B7
:10146000664800780700FFB20097F6B23300EDB28D
:101470002A00E4B221006248FFF741FB03205649ED
:101480000870002055490870002055490870042054
:10149000544908700120544908708020534908704D
:1014A000524800780006FBD55148007804005148A6
:1014B0000078050050480078060050480078070082
:1014C000FFB20097F6B23300EDB22A00E4B2210079
:1014D0004C48FFF714FBFF2044490870F1BD0000A1
:1014E00020410000E004FF1F5404FF1F5C3F000088
:1014F00000E007401C440000C0410000FC44000024
:1015000001E007402C4400006C43000058420000FA
:1015100070420000DC41000008450000404100002E
:101520000000FF1F000000001445000020450000DF
:101530002480044038450000404500004845000034
:101540005045000058450000604500006845000017
:1015500070450000784000003C4400004C4400000E
:101560005C4400006C4400007C4400008C4400009B
:101570009C440000AC440000BC440000CC4400008B
:101580004C4000008043000094430000A84300004A
:10159000A43F00004C80044088420000A0420000AC
:1015A000B84200006041000050800440DC4400006C
:1015B000D0420000E84200000043000080410000EB
:1015C00000700440BC430000D0430000E44300002E
:1015D000F8430000F8410000070002400600024006
:1015E00005000240040002400F00024000000240DB
:1015F0000B0002400A0002400900024008000240BD
:10160000A0400000A041000080B500F009F80A48A1
:1016100000884FF6FE7108400749088001BD0000B0
:1016200072B64CF22050054908804DF62810034947
:10163000088062B670470000002005400E2005407B
:101640002DE9F8432448254988420DD000208046E2
:10165000B8F5826F08D2214850F828001E4941F899
:10166000280018F10108F3E71B4800F0F9F81C48BE
:1016700007001C4806001C480400A01B804640468A
:10168000B0F10108002804D030783870761C7F1C37
:10169000F5E71648814616480500B5EB0900804677
:1016A0004046B0F10108002805D0002089F800006C
:1016B00019F10109F4E70F480F49104A531A9846E7
:1016C0004346B3F10108002B04D00B780370491C8A
:1016D000401CF5E7BDE8F1830000FF1F000000009B
:1016E0001004FF1F703D0000D43D0000C404FF1F24
:1016F0000505FF1F7404FF1FC43E0000143F0000D7
:1017000080B51148006850F478500F490860C8202F
:1017100000F03EF90D4908600C4800684FF47A71FA
:1017200048430B4908600A4800680A490968C1F340
:101730000361491CB0FBF1F0074908605FF4E13137
:10174000052000F09FFA01BD38800440E004FF1F2F
:10175000DC04FF1F44800440E404FF1F80B572B620
:1017600000F0B2FB5FF4E131052000F08BFA0123B9
:1017700001221121002000F02DFC324801680020D8
:1017800000F08AFC2F480068642101FB00F1012071
:1017900000F082FC002000F0B7FC00F055FE0023B2
:1017A00048F6B8020421002000F0B4FE002348F6F9
:1017B000B8020521002000F0ADFE322348F6B80241
:1017C0000621002000F0A6FE322348F6B8020721C9
:1017D000002000F09FFE62B601F04CF800F096FB8E
:1017E00019480078012804D100201749087000F03A
:1017F00093FB16480078012802D100201349087095
:1018000013480078012802D10020114908701148BE
:101810000078012802D100200E4908700E48007897
:101820000128D9D10D480068C0F3404090F0010074
:101830000A49096860F351410848016000200649DF
:101840000870C9E7E404FF1FF504FF1FF604FF1F3B
:10185000F704FF1FF804FF1FFA04FF1F00F00F40FA
:101860003D490860704738B504005C2C02DB3B48FA
:10187000FFF745F9202094FBF0F00500002D03D080
:10188000022D27D013D337E00120202194FBF1F261
:1018900002FB11429040324908600120202194FB54
:1018A000F1F202FB114290402E49086024E0012031
:1018B000202194FBF1F202FB114290402A4908607A
:1018C0000120202194FBF1F202FB114290402749B4
:1018D000086011E00120202194FBF1F202FB11428B
:1018E0009040234908600120202194FBF1F202FB83
:1018F000114290401F49086031BD38B504005C2C8E
:1019000002DB1D48FFF7FBF8202094FBF0F00500F8
:10191000002D03D0022D15D00AD31CE00120202178
:1019200094FBF1F202FB114290401449086012E06E
:101930000120202194FBF1F202FB1142904010495A
:10194000086008E00120202194FBF1F202FB114223
:1019500090400C49086031BD08ED00E0E43F000014
:1019600080E200E000E100E084E200E004E100E069
:1019700088E200E008E100E0C034000080E100E01F
:1019800084E100E088E100E0DFF800F07504FF1F6B
:1019900038B50400E4B2002C00F00681E4B2200067
:1019A00030281ED0322823D0602828D064282DD09B
:1019B0006E2832D0782837D07D283CD0822841D07C
:1019C0008C2846D096284BD0A02850D0AA2855D095
:1019D000B4285AD0C8285FD0E12864D0FA2869D04A
:1019E0006FE018209F49087000209E4948706CE005
:1019F00018209C49087001209A49487065E0182019
:101A0000984908701820974948705EE01820954959
:101A100008701A209349487057E0182091490870BF
:101A20001F209049487050E013208E4908701820FC
:101A30008C49487049E013208A4908701A20894966
:101A4000487042E01320874908701C20854948707F
:101A50003BE00E208349087012208249487034E030
:101A60000E208049087015207E4948702DE00E2018
:101A70007C49087018207B49487026E00E2079497F
:101A800008701B20774948701FE00E2075490870C8
:101A90001E207449487018E00C20724908701C2000
:101AA0007049487011E00B206E4908701E206D4986
:101AB00048700AE00A206B4908701F206949487085
:101AC00003E06420FFF764FFCAE0002065498870E6
:101AD000E4B2332C03DA00206249C87017E0E4B2A4
:101AE000652C03DA01205F49C87010E0E4B2972C3E
:101AF00003DA02205B49C87009E0E4B2C92C03DABA
:101B000003205849C87002E00F205649C870554854
:101B1000C07854490871E4B21A2C03DA0020514904
:101B2000487141E0E4B2332C03DA01204D49487199
:101B30003AE0E4B24C2C03DA02204A49487133E01F
:101B4000E4B2652C03DA0320464948712CE0E4B284
:101B50007E2C03DA04204349487125E0E4B2972C37
:101B600003DA05203F4948711EE0E4B2B02C03DAE5
:101B700006203C49487117E0E4B2C92C03DA07207B
:101B80003849487110E0E4B2E22C03DA0820354904
:101B9000487109E0E4B2FB2C03DA092031494871AD
:101BA00002E00F202F4948712E484078183080B24B
:101BB000322148432B490978491C89B290FBF1F046
:101BC00005000020284908702848006850F080501F
:101BD000264908602648007850F0800024490870A3
:101BE00098202449087024480078C006FBD4224875
:101BF0000078C0F38100C0B20228F8D119480078FB
:101C000010F01F001D49087000201D49087015487C
:101C10004379144802791348C17812488078FFF755
:101C2000B3FE1048407810F01F0050F040001449F7
:101C30000870114800788006FBD50F4800784006F0
:101C4000FBD50C48007810F03F000A4908700A489C
:101C50000078C0F38100C0B20328F8D12800C0B2D8
:101C600032BD00BF5404FF1F0140064034800440D1
:101C700008C00740004006400640064004400640B9
:101C800005400640F0B4C0B2002808D0022824D095
:101C900014D304283FD02FD305284BD059E04FF45C
:101CA0004076784F3E604FF44076774F3E60774EF7
:101CB000366856F48066754F3E604AE04FF44076D1
:101CC000734F3E604FF44076724F3E606F4E366801
:101CD00056F400666D4F3E603BE04FF440766E4F29
:101CE0003E604FF440766D4F3E60684E366856F465
:101CF0008056664F3E602CE04FF44076684F3E6061
:101D00004FF44076674F3E60604E366856F400569A
:101D10005E4F3E601DE04FF44076634F3E604FF4EF
:101D20004076624F3E60624E366856F48066604F81
:101D30003E600EE04FF440765E4F3E604FF44076DA
:101D40005D4F3E605A4E366856F40066584F3E600E
:101D5000FFE7C0B2594E56F82060F67816F0F30649
:101D6000C0B2564F57F82070FE700026C0B2534FD5
:101D700057F82070BE70C0B2002801D1012600E0E3
:101D80000026C0B2012801D1012700E00027F6B2E9
:101D9000FFB23E43002E06D0494E36684FF47A77A4
:101DA0007E43350005E0474E36684FF47A777E4330
:101DB00035000E01B5FBF6F63200C0B23F4E56F8C4
:101DC0002060367816F0E006340092B2160A16F05B
:101DD0001F062643C0B2394F57F820703E70C0B27C
:101DE000364E56F8206072706E010F01B6FBF7F6A2
:101DF00092B2B6EB42163300C0B2304E56F82060B5
:101E0000B67A16F0E006340013F01F062643C0B27F
:101E10002A4F57F82070BE72C0B2284E56F8206084
:101E2000F67856F00C06C0B2244F57F82070FE70BA
:101E3000F0BC7047C0B2214951F8201009798906D9
:101E4000F8D5C0B21D4951F82000C0797047C0B222
:101E50001A4A52F8202012791206F8D5C0B2174A51
:101E600052F82020D171704738B504000D00287851
:101E7000002806D029782000C0B2FFF7E8FF6D1CCB
:101E8000F5E731BD3C900440389004403480044074
:101E90000CB0044010B004400CC0044008C0044022
:101EA00040B0044044B0044064D0044060D00440DA
:101EB0002880044024D0044020D004405C04FF1F4C
:101EC000DC04FF1FE404FF1F80B50123012206216B
:101ED000022000F07FF8012301220721022000F0F8
:101EE00079F8012301220821022000F073F8012370
:101EF00001220921022000F06DF8012301220B21AB
:101F0000022000F067F800F075FD01BD80B500F01B
:101F1000E9FD00F02DFE01BD80B500221C2100204E
:101F200000F077F9254908702448007800061FD58D
:101F300003221C21002000F06CF9204908701F4882
:101F400000781F49087005221C21002000F061F96B
:101F50001A490870194800781A490870184800781A
:101F600060381749087017480078603015490870C4
:101F700001BDF8B51248007810F15D0611480078EF
:101F8000B0F15D07FFB23800FEF746FE02000B001D
:101F900014001D00F6B23000FEF73EFE22002B00BA
:101FA00000F02CFE084A094BFEF744FE0022084BC5
:101FB000FEF740FEFEF794FFF2BD0000F204FF1FA3
:101FC000F304FF1FF404FF1FD9CEF753E3A54C40E1
:101FD00000002440F8B504000D0016001F00EDB20B
:101FE000202D02D2FFB2022F03D34721274800F051
:101FF0006BFEEDB2E4B2264850F82400F6B256F477
:10200000807140F82510F00705D5F6B2032E02D0F6
:10201000F6B2132E0DD1E4B21E4850F824004069E8
:102020000121A9408843E4B21A4951F824104861BB
:102030002AE0E4B2174850F8240040690121A94081
:102040000843E4B2134951F824104861FFB2012F4C
:102050000DD1E4B20F4850F8240000680121A940D6
:102060000843E4B20B4951F8241008600CE0E4B2D4
:10207000084850F8240000680121A9408843E4B2D0
:10208000044951F824100860F1BD0000743E0000BE
:102090003804FF1F2404FF1F38B504000D00174843
:1020A000006850F400001549086015480068800871
:1020B000800013490860E4B2200112494550E4B29F
:1020C000104810EB0410C06850F00100E4B20D4954
:1020D00011EB0411C860E4B20A4810EB04108068E8
:1020E00050F00300E4B2074911EB04118860E4B238
:1020F00014F14400FFF7B7FB31BD00003C80044001
:102100000070034000710340DFF8E42312684CF2D2
:1021100051339A4202D2002211000BE0DFF8D023A3
:102120001268DFF8D0339A4202D20122110001E096
:1021300002221100C0B2002812D1DFF8BC231268BD
:1021400052F04002DFF8B0331A604FF40072DFF84B
:10215000AC331A604FF40072DFF8A4331A6011E058
:10216000DFF89423126852F08002DFF88C331A6093
:102170004FF40072DFF88C331A604FF40072DFF80E
:1021800088331A608A0152F01102C0B2DFF87C3342
:1021900053F820305A708022C0B2DFF8703353F801
:1021A00020309A70704710B452EA4101C0B2D74B48
:1021B00053F820309B7853F01003C0B2D34C54F83E
:1021C0002040A370C0B2D14B53F820309B7853F01D
:1021D0002003C0B2CD4C54F82040A370C0B2CB4B0A
:1021E00053F82030197110BC7047000081B00120F5
:1021F000ADF80000BDF800004CF25031884206DA1C
:1022000000BFBDF80000401CADF80000F2E701B0CF
:102210007047F8B504000D00160000222900C9B26D
:102220002000C0B2FFF7BFFFE4B2B84850F8240066
:10223000C0788007F8D5E4B2B44850F82400C078DC
:1022400050F00200E4B2B14951F82410C870E4B271
:10225000AE4850F824000671E4B2AC4850F82400AF
:10226000C0788007F8D5E4B2A84850F82400C078B8
:1022700050F00200E4B2A54951F82410C870E4B24D
:10228000A24850F82400807850F00400E4B29F493E
:1022900051F824108870680050F00100E4B29B49A6
:1022A00051F824100871E4B2984850F82400C0781E
:1022B0008007F8D5E4B2954850F82400C07850F073
:1022C0000200E4B2914951F82410C870E4B28F487A
:1022D00050F82400807810F0EF00E4B28B4951F8F8
:1022E00024108870E4B2894850F82400807850F0B7
:1022F0000800E4B2854951F824108870E4B283489C
:1023000050F8240000790700E4B2804850F8240017
:10231000C0788007F8D5E4B27C4850F82400C07833
:1023200050F00200E4B2794951F82410C870E4B2C8
:10233000764850F82400807810F0DF00E4B273494A
:1023400051F824108870E4B2704850F82400807866
:1023500010F0EF00E4B26D4951F824108870E4B237
:102360006A4850F8240000790700FFF73FFF380063
:10237000C0B2F2BDF8B504000D0016001F00002227
:102380002900C9B22000C0B2FFF70DFFE4B25F48D8
:1023900050F82400C0788007F8D5E4B25B4850F8C4
:1023A0002400C07850F00200E4B2584951F82410DB
:1023B000C870E4B2554850F824000671E4B253489E
:1023C00050F82400C0788007F8D5E4B24F4850F8A0
:1023D0002400C07850F00200E4B24C4951F82410B7
:1023E000C870E4B2494850F824000771E4B2474885
:1023F00050F82400C0788007F8D5E4B2434850F87C
:102400002400C07850F00200E4B2404951F8241092
:10241000C870E4B23D4850F82400807810F0DF0026
:10242000E4B23A4951F824108870E4B2374850F8C1
:102430002400807810F0EF00E4B2344951F8241001
:102440008870FFF7D3FEF1BD10B52A221C210020B1
:10245000FFF7DFFE040014F0FE042300DBB22A22A3
:102460001C210020FFF786FF0E221C210020FFF711
:10247000D0FE274908702648007810F0FC00244957
:102480000870234803780E221C210020FFF772FFFA
:102490002A221C210020FFF7BCFE040014F05E0479
:1024A00054F018042300DBB22A221C210020FFF77D
:1024B00061FF2A221C210020FFF7ABFE040014F06C
:1024C000FC042300DBB21C2238210020FFF752FF5E
:1024D0002A221C210020FFF79CFE040054F0010476
:1024E0002300DBB22A221C210020FFF743FF10BD8E
:1024F000E404FF1FA18601003480044020C0044092
:1025000024C0044028B004402CB004404C04FF1FF9
:10251000F204FF1F2DE9F84F04000D0016001F0004
:10252000DFF8080300684FF47A7148435FEA500807
:10253000E4B2002C0DD0E4B2012C02D0E4B2022CA3
:1025400002D1EDB2022D04DB3821DFF8E40200F005
:10255000BBFB5FEA5800B04204D23921DFF8D00259
:1025600000F0B2FB5FEA1840B0FBF6F081460020B5
:1025700082461FFA89F959FA0AF0012802DB1AF19A
:10258000010AF6E7B6F57A7F01D21AF1010A38FAA4
:102590000AF0B0FBF6F081461FFA89F919F1010043
:1025A00000FB07F06421B0FBF1F08346E4B2002C9D
:1025B00005D0022C00F0B880C0F08A80E0E0DFF89F
:1025C0007402006850F08070DFF868120860EDB2A5
:1025D000002D0BD0022D25D016D3042D3ED02FD3A5
:1025E000062D57D048D3072D62D06FE0DFF84802A0
:1025F000006850F40060DFF8401208604FF480601B
:10260000DFF83812086062E0DFF82C02006850F44E
:102610000060DFF8241208604FF48060DFF82012B9
:10262000086054E0DFF81002006850F40060DFF842
:10263000081208604FF48060DFF80812086046E076
:10264000DFF8F401006850F40060DFF8EC11086076
:102650004FF48060DFF8F011086038E0DFF8D8014F
:10266000006850F48050DFF8D01108604FF48060AB
:10267000DFF8D81108602AE0DFF8BC01006850F4E8
:102680008050DFF8B41108604FF48060DFF8C011AB
:1026900008601CE0DFF8A001006850F48050DFF80B
:1026A000981108604FF48060DFF8A81108600EE010
:1026B000DFF88401006850F48050DFF87C11086076
:1026C0004FF48060DFF89011086000E0ACE057E064
:1026D000DFF86001006850F00070DFF85811086002
:1026E000EDB2002D02D0012D0ED01BE0DFF8480125
:1026F000006850F40070DFF8401108604FF440703B
:10270000DFF8581108600EE0DFF82C01006850F483
:102710000070DFF8241108604FF44070DFF84011BA
:10272000086000E080E02BE0DFF83801006850F03E
:102730008070DFF830110860EDB2002D02D0012D5D
:102740000ED01BE0DFF8F000006850F40070DFF8F6
:10275000E81008604FF44070DFF80C1108600EE0DC
:10276000DFF8D400006850F40070DFF8CC10086087
:102770004FF44070DFF8F410086000E054E0FFE729
:10278000EDB2E4B2DFF8E80050F8240010EBC50029
:10279000EDB2E4B2DFF8D81051F8241011EBC50106
:1027A000C96831F00401C160EDB2E4B2DFF8C000E5
:1027B00050F8240010EBC5002821C1605FFA8AFAA6
:1027C0001AF0070050F02800E4B2DFF8A41051F826
:1027D000241008600020E4B2DFF8941051F82410AF
:1027E000C8641FFA89F9E4B2DFF8840050F82400C5
:1027F000C0F808900020E4B2DFF8741051F82410FB
:10280000C864EDB2E4B2DFF8680050F8240010EBC1
:10281000C5001FFA8BFBC0F810B00020E4B2DFF84F
:10282000501051F824104860BDE8F18FE404FF1FF8
:10283000243E00003C8004403880044004B0044042
:1028400008B004400CB0044010B0044010C0044074
:1028500014C0044018C004401CC004402090044030
:102860002490044030800440289004402C90044080
:102870001804FF1F10B51121012000F031FA0A23BE
:1028800000221121012000F048FB0400E4B22000E6
:10289000FEF7C2F9134A144BFEF7CCF900F0D6FB51
:1028A0001249086011480068114900F017FC00F057
:1028B00081FC10490968884211D00C48006800F07A
:1028C0009BFC02000B000C48FEF719F90748006852
:1028D000074900F003FC00F06DFC0649086005485C
:1028E000006810BDEC51B81E853BA23FD404FF1F09
:1028F0000000C842D804FF1F5843000081B00020E8
:10290000ADF80000BDF800000F2805DABDF80000A2
:10291000401CADF80000F5E701B0704781B0002021
:10292000ADF80000BDF800000F2805DABDF8000082
:10293000401CADF80000F5E701B0704710B500216C
:102940000C2000F010F80021802000F00CF800208E
:102950000400B4F5FC7F05D20121002000F003F84B
:10296000641CF6E710BD70B504000D005B480068FC
:1029700030F4807059490860EDB2002D06D15748F7
:10298000006830F400705549086005E0534800685D
:1029900050F400705149086000200600F6B2082E7D
:1029A00021DA200606D54D48006850F040004B491A
:1029B000086005E04948006830F040004749086079
:1029C0004648006830F08000444908606400FFF722
:1029D000A5FF4248006850F0800040490860FFF7BA
:1029E0009DFF761CDAE73D48006850F480703B4953
:1029F000086070BD80B53948006830F40060374920
:102A00000860FFF77BFF3548006850F400603349E9
:102A100008603248006830F4807030490860FFF781
:102A20006DFF2E48006850F480702C490860FFF755
:102A300065FF00212120FFF796FF0021C820FFF746
:102A400092FF00210620FFF78EFF00211320FFF7E1
:102A50008AFF00212020FFF786FFFFF76FFF00218C
:102A60000C20FFF780FF1D48006830F480701B4980
:102A7000086001BD38B504000D00002155F040008C
:102A8000C0B2FFF770FF002154F08000C0B2FFF722
:102A90006AFF31BD70B50400E4B22600B6B2202E44
:102AA00002DBB6B27F2E01DB00200600203E0520AF
:102AB00016FB00F600200500EDB2052D08DA012115
:102AC000B6B20748305CFFF74EFF761C6D1CF3E78B
:102AD00001210020FFF747FF70BD000080F00F408C
:102AE000943B000070B5FFF7C5FE642190FBF1F048
:102AF00030300400FFF7BEFE642190FBF1F201FBD1
:102B000012000A2190FBF1F030300500FFF7B2FE11
:102B10000A2190FBF1F201FB120030300600002187
:102B20000020FFF7A7FF5020FFF7B4FF4F20FFF76B
:102B3000B1FF5720FFF7AEFF4520FFF7ABFF522054
:102B4000FFF7A8FF3A20FFF7A5FF2000C0B2FFF76C
:102B5000A1FF2E20FFF79EFF2800C0B2FFF79AFFCB
:102B60003000C0B2FFF796FF5620FFF793FF70BD0D
:102B700070B5FFF7FEF9642190FBF1F030300400EE
:102B8000FFF7F7F9642190FBF1F201FB12000A2133
:102B900090FBF1F030300500FFF7EBF90A2190FBD4
:102BA000F1F201FB12003030060001210020FFF796
:102BB00061FF4120FFF76EFF6E20FFF76BFF67207C
:102BC000FFF768FF6C20FFF765FF6520FFF762FFE6
:102BD0003A20FFF75FFF2000C0B2FFF75BFF28003D
:102BE000C0B2FFF757FF2E20FFF754FF3000C0B2EE
:102BF000FFF750FF2A20FFF74DFF70BD38B50FB427
:102C0000DDE9020100F01FFB0546DDE9000100F0EF
:102C10001AFB0246012DB8BF012A2CDA01980028C0
:102C200007D5DDE9000181F00041CDE9000108246C
:102C300000E000240398002807D5DDE9020181F0B7
:102C40000041CDE9020184F00604DDE90201DDE97D
:102C50000023FEF76BF902D200F00EFB27E0002DF7
:102C600006D5DDE90001DDE9022300F005FB20E0E7
:102C7000002000211DE0022A08BFDDE900011ED06E
:102C8000022D08BFDDE9020119D0954207BF0020DF
:102C90000C4900200021019B002B4CBF082400247C
:102CA000039B002B48BF84F00604012A01D184F065
:102CB0000204224605B0BDE8304000F021BC05B05A
:102CC00030BD00BF0000F03F38B504000D002A0001
:102CD00021000248FDF713FFF9E700BF143F000091
:102CE00038B504000D00E4B2002C05D1EDB2082D7A
:102CF00002DBEDB2132D0DDBE4B2012C05D1EDB2F8
:102D0000042D02DBEDB2122D04DB2221DFF8F402E8
:102D1000FFF7DAFFE4B2002C03D0012C00F0828030
:102D2000FAE0DFF8E402006850F00060DFF8D81243
:102D30000860DFF8D802006830F09000DFF8CC12AD
:102D400008600020DFF8C4120860EDB228000838DF
:102D500001280CD9801E01281BD9801E01282AD9E0
:102D6000801E012839D9C01E012848D958E0DFF853
:102D7000A002006850F48060DFF894120860002020
:102D8000EDB2A90001F1804111F5942141F8200C28
:102D900047E0DFF87C02006850F40070DFF8701242
:102DA00008600020EDB2A90001F1804111F59221E7
:102DB00041F80C0C35E0DFF85802006850F48060F0
:102DC000DFF84C1208600020EDB2A90001F180414B
:102DD00011F5942141F8280C23E0DFF83402006853
:102DE00050F40060DFF8281208600020EDB2A9005E
:102DF00001F1804111F5962141F8380C11E0DFF81E
:102E00001002006850F40050DFF80412086000203F
:102E1000EDB2A90001F1804111F59A21C86100E0ED
:102E20007AE079E0DFF8EC01006850F00060DFF84C
:102E3000E4110860DFF8D401006830F41040DFF8D6
:102E4000CC1108600020DFF8C4110860EDB2280042
:102E5000001F03280BD9001F01281AD9801E032840
:102E600029D9001F012838D9C01E48D053E0DFF807
:102E7000A001006850F40050DFF8941108600020B1
:102E8000EDB2A90001F1804111F59A2141F8100C31
:102E900041E0DFF87C01006850F48060DFF87011D9
:102EA00008600020EDB2A90001F1804111F59421E4
:102EB00041F8200C2FE0DFF85801006850F48060E2
:102EC000DFF84C1108600020EDB2A90001F180414B
:102ED00011F5942141F8180C1DE0DFF83401006869
:102EE00050F48060DFF8281108600020EDB2A900DE
:102EF00001F1804111F5942141F8180C0BE0444890
:102F0000006850F40070424908600020EDB2424968
:102F100041F82500FFE7FFE731BD2DE9F843040044
:102F20000D0016001F005FF00008E4B2002C05D170
:102F3000EDB2082D02DBEDB2132D0CDBE4B2012C57
:102F400005D1EDB2042D02DBEDB2122D03DBBE2163
:102F50002C48FFF7B9FE3200D2B22900C9B22000D6
:102F6000C0B200F02AF8002081465FFA89F9FFB26A
:102F7000B9451CD2E4B2294850F824000068000684
:102F8000F8D5E4B2254850F82400006910EB080891
:102F9000E4B2224850F82400006830F08000E4B227
:102FA0001E4951F82410086019F10109DDE7FFB24C
:102FB000B8FBF7F080B2BDE8F28370B504000D00F5
:102FC000160015F01F0050F0400015490872B000BF
:102FD00010F00C0050F05000114908700420104906
:102FE000487041F234200E49488045F278600C491F
:102FF00088800B49E4B2094850F8240000F012F828
:1030000070BD0000D43D00003C80044018800440A6
:103010003880044030800440009004401004FF1FBA
:10302000C404FF1F0A7882604A78C2604A888261BD
:103030008A88C2618A790262CA794262CA68026574
:103040000A7A02604A7A4260704700004FEAF17CD7
:10305000BCF1E04C2CBFBCF5001F11E05FEA4C0C4A
:1030600034BFBCF17F5F2EE05FEA9C0C4FEA0C1C82
:103070004FEA3C0CC10071F100414CEB50707047BD
:10308000C90241EA5051C00218BF41F0010141F0AC
:1030900000414FEA6C50C0F10900212810D240EAEB
:1030A000CC7CCCF1200C11FA0CF070F10040CCF18A
:1030B000200C21FA0CF00CF0004C40EB0C00704797
:1030C0004FEACC707047490011F5001F04D84FEA51
:1030D000CC10FF30C0057047C8177047FF2212EAB6
:1030E000D05C1DBF12EAD153944593422BE09C441F
:1030F000D30780EA01021A4043EA002043EA012193
:10310000A1FB0030410038BF40007CF17F010BDBA8
:10311000FE294ADA5B0842EAC15153EA006373F1BF
:10312000004C51EB10207047D1F1080CDCF120016C
:103130002FDB5B0810FA01F10B4373F1004120FA19
:103140000CF05041704794451CBF02EAD1539342A2
:1031500080EA010202F000421DD0400019D049006F
:1031600017D05BB9634514D00902B1FA81F39940D5
:10317000BCEB030CC00140F00040C1E70002B0FA14
:1031800080FC10FA0CF0B3EB0C0CC90141F00041CB
:10319000B6E71000704740000AD0490008D010F18F
:1031A000807F94BF11F1807F02E042F0FF407047C2
:1031B000D04370474100090E7F3915D4D1F11F016A
:1031C00014D4400007D2C00140F00040C84048BFBE
:1031D0006FF000407047C00140F00040C8404CBF55
:1031E0004FF00040404270470020704700424FF0CF
:1031F000004058BFC04370475FF0FF0C1CEAD0513D
:1032000014BF614506E0C110400721F0E04101F123
:103210006051704779B900F0004100020AD0B0FA5D
:1032200080FC00FA0CF001F16051A1EB0C5101EBB4
:10323000D0214005704741020CBF40F4E0016FF01F
:10324000000100207047C1F30A5240F2FF739A4216
:103250000AD012B14FF0FF307047090350EA113025
:1032600009D06FF001007047090350EA113001D016
:103270000220704701207047F0B540F2FF7581EAE7
:10328000030C0CF0004C15EA11541DBF15EA13573E
:10329000AC42AF42E5E0BC41C1F31301C3F31303F9
:1032A000801A994143F4801304D2641E40004941BE
:1032B00080185941C90241EA5051B1FBF3F603FBB2
:1032C0001611A2FB0675D7EBC020A94102D2761ECB
:1032D00080185941C90241EA5051B1FBF3FE03FB8A
:1032E0001E11A2FB0E75D7EBC020A94103D2AEF18F
:1032F000010E80185941890241EA9051760546EA4B
:103300008E2EB1FBF3F603FB1611A2FB0675D7EB6D
:103310008020A94102D2761E80185941C90241EA93
:1033200050514EEA060EB1FBF3F603FB1611A2FB59
:103330000675D7EBC020A94102D2761E80185941EC
:10334000C90241EA5051B1FBF3F703FB1711A2FB8D
:103350000735D3EBC020A94167F100070CBF00423D
:1033600047F0010766F3D5274FEA1E31B80814F578
:10337000806412DDBD0775F1004250EB0E5051EB39
:10338000045111F5801F5CBF41EA0C01F0BD4CF007
:103390007F6141F0E0410020F0BDBD076D0840EACB
:1033A0000E5041F48011D4F10104B4F120060ADA80
:1033B000C4F120060200E04001FA06F3E1401843A0
:1033C000B24015430EE0342C13DCC6F1200445EA6C
:1033D00040056D0820FA06F2154321FA06F0A140D7
:1033E0000D43002175F1004250F1000051EB0C013A
:1033F000F0BD00205FEA0C01F0BDCFB992185B412F
:10340000B3FA83F704BFB2FA82F6BF190B3FB7F1E4
:1034100020062FBF02FA06F3BB40C7F1200622FAAE
:1034200006F638BF3343BA401CB1E419641E33E7D3
:103430007F4231F00041B1FA81F404BFB0FA80F666
:10344000A4190B3CB4F120062FBF00FA06F1A140ED
:10345000C4F1200620FA06F638BF3143A0403C1BD9
:103460001AE7AC421ABF05EA1357AF4212E050EA1E
:1034700041061CBF52EA4306BFE750EA4107304607
:1034800061461CBF41EA0551F0BD52EA430C08BF3A
:10349000C143F0BD00204FF4001616EB410F98BF5A
:1034A00016EB430F08BF16EB410F24BFC14305E0E5
:1034B00016EB430F0CBF61464CEA0551F0BD00000E
:1034C0000A4552522120496E76616C696420495246
:1034D000512076616C75652070617373656420742A
:1034E0006F2064697361626C652069727120667512
:1034F0006E6374696F6E210A000000000000000016
:103500002DE9F04D1746504A504B00F0E9F80446BB
:103510000D461CD84E4EDFF83C8132464346FDF73F
:1035200089FB00224C4BFDF767FC82468B463246F6
:10353000434620462946FDF75FFC02460B465046AF
:103540005946FFF799FE04460D4647F0010720460D
:1035500029460022414BFDF7E9FC05D301224FF03B
:10356000795300F0BDF853D822462B46FDF762FB95
:10357000064688463246434620462946FDF75AFB12
:1035800082468B463648374932464346FDF752FB62
:10359000354A364BFDF730FC32464346FDF74AFBD1
:1035A000334A344BFDF728FC52465B46FDF742FB9D
:1035B00022462B46FDF720FC04460D462E482F4997
:1035C00032464346FDF736FB2D4A2E4BFDF714FCE1
:1035D00032464346FDF72EFB2B4A2C4BFDF70CFCE5
:1035E00032464346FDF726FB294A2A4BFDF704FCE9
:1035F00032464346FDF71EFB0022274BFDF7FCFB3E
:1036000002460B4620462946FFF736FE04460D4685
:10361000B80748BF85F0004517F007000BD00FF240
:10362000800101EBC0022B46D2E900012246FDF7E2
:10363000E3FB04460D46380747BF85F000412046AE
:1036400020462946BDE8F08D57CD9E5E1426D13F19
:10365000AA4C58E87AB6FB3F0000F0BF000040BE1D
:10366000845D57134B57B03FB2934C19ED5EE43F66
:10367000BEDE02B90240F83FDE39028FC7C0743F98
:103680008AAB1283000CC83F24D7E508B6D8F03FB8
:103690000F34580E5895FD3F0000F03F0000000029
:1036A000000000000000000066732D3852C1E03FAA
:1036B000182D4454FB21F93F66732D3852C1F03F59
:1036C000182D4454FB21F93F66732D3852C1004038
:1036D000182D4454FB2109403FD038C6A6F10440C0
:1036E0004FF4001C1CEB410F94BF1CEB430F09E08F
:1036F00041EA030C50EA4C0C52EA0C0C03D28B4208
:1037000008BF8242704714BF994290427047000040
:1037100010B572B60120FEF78DFB0400DFF8E81348
:103720000120FEF7A1FB2100C9B20120FEF78FFBAB
:1037300062B610BDDFF8D403006850F00100DFF876
:10374000CC1308607047DFF8C803006850F0010030
:10375000DFF8BC130860DFF8BC030088401CDFF80A
:10376000B4130880DFF8AC030088052190FBF1F268
:1037700001FB1200002803D10120DFF89C13087020
:10378000DFF8900300880A2190FBF1F201FB1200A0
:10379000002803D10120DFF884130870DFF87403D8
:1037A00000880F2190FBF1F201FB1200002803D1E9
:1037B0000120DFF86C130870DFF85803008814212B
:1037C00090FBF1F201FB1200002803D10120DFF889
:1037D00054130870DFF83C030088502190FBF1F28D
:1037E00001FB1200002803D10120DFF83C13087010
:1037F000DFF8200300884FF47A7190FBF1F201FBAF
:103800001200002803D10120DFF820130870DFF830
:103810000403008841F27071884203D10020DFF870
:10382000F412088070477047704780B5DFF80003D6
:10383000FDF765F9FAE7002008210800DFF8F41227
:103840000968C140C9071DD5BA49096801228240EB
:103850001143B84A1160B8490988002903D10121F0
:10386000B64A11700EE0B44909880E290ADB00211E
:10387000B14A11800021B14A1170B1490978491C3F
:10388000AF4A117009210800AA490968C140C90757
:103890001DD5A8490968012282401143A54A11603B
:1038A000A8490988002903D10121A74A11700EE017
:1038B000A44909880E290ADB0021A24A11800021AF
:1038C000A14A1170A1490978491CA04A11700A2126
:1038D000080098490968C140C9071DD5954909687C
:1038E000012282401143934A1160994909880029B5
:1038F00003D10121974A11700EE0954909880E29DC
:103900000ADB0021924A11800021924A11709249EB
:103910000978491C904A11700B21080085490968F3
:10392000C140C9071DD5834909680122824011435E
:10393000804A116089490988002903D10121884AF8
:1039400011700EE0854909880E290ADB0021834A9F
:1039500011800021824A117082490978491C814AEC
:10396000117070470020002108007F490968C1409C
:10397000C90706D57C4909680122824011437A4A69
:1039800011600A21080078490968C140C90706D5B5
:1039900075490968012282401143734A11607047DA
:1039A0007248006850F00100704908606348007870
:1039B000002804D060480088401C5F4908805E48A9
:1039C0000088972805DB00205B49088000205B49C0
:1039D00008705D480078002804D05A480088401CD0
:1039E0005849088057480088972805DB002055492A
:1039F000088000205449087056480078002804D0F8
:103A000053480088401C5249088051480088972834
:103A100005DB00204E49088000204E4908705048C0
:103A20000078002804D04D480088401C4B4908808D
:103A30004A480088972805DB002048490880002074
:103A4000474908707047704738B5494804680020F6
:103A500047490860002005000120A8402100C9B2A4
:103A600001420CD0EDB2434850F8350030F0400030
:103A7000EDB2404941F835003F48FDF740F80120DC
:103A800005000120A8402100C9B2014209D0EDB2D1
:103A9000384850F8350030F04000EDB2354941F873
:103AA000350031BD80B53548006850F0100033490D
:103AB00008600420FDF721FF3148006830F0100055
:103AC0002F49086001202F49087001BD80B52E489C
:103AD000FDF715F82948006850F0010027490860F3
:103AE0002748006850F001002549086001BD2748BB
:103AF000006850F080002549086025480078401C87
:103B00002349087070470000304300001C710340D7
:103B10000C710340E804FF1FF504FF1FF604FF1FAC
:103B2000F704FF1FF804FF1FF904FF1FFA04FF1F2B
:103B300000410000A0C00440EA04FF1FFB04FF1F77
:103B4000FC04FF1FEC04FF1FFD04FF1FFE04FF1F0A
:103B5000EE04FF1FFF04FF1F0005FF1FF004FF1FFF
:103B60000105FF1F0205FF1FA0A004402C710340A8
:103B7000509003400C9003400C440000248000400F
:103B80000C8000400305FF1F444300000000044078
:103B90000405FF1F000000000000002F00000007C8
:103BA000000700147F147F14242A7F2A12626408FD
:103BB000132336495522500005030000001C224102
:103BC000000041221C0014083E081408083E0808A2
:103BD0000000A060000808080808006060000020DD
:103BE000100804023E5149453E00427F40004261B8
:103BF0005149462141454B311814127F1027454544
:103C000045393C4A4949300171090503364949495A
:103C100036064949291E0036360000005636000097
:103C20000814224100141414141400412214080230
:103C300001510906324959513E7C1211127C7F49CB
:103C40004949363E414141227F4141221C7F494939
:103C500049417F090909013E4149497A7F0808081D
:103C60007F00417F41002040413F017F08142241F5
:103C70007F404040407F020C027F7F0408107F3E5F
:103C80004141413E7F090909063E4151215E7F09BC
:103C9000192946464949493101017F01013F404008
:103CA000403F1F2040201F3F4038403F631408140E
:103CB0006307087008076151494543007F4141008F
:103CC000552A552A550041417F0004020102044053
:103CD00040404040000102040020545454787F4882
:103CE0004444383844444420384444487F38545489
:103CF0005418087E09010218A4A4A47C7F080404B7
:103D00007800447D40004080847D007F102844007E
:103D100000417F40007C041804787C080404783853
:103D200044444438FC2424241818242418FC7C0817
:103D30000404084854545420043F4440203C40406C
:103D4000207C1C2040201C3C4030403C4428102853
:103D5000441CA0A0A07C4464544C4400083641009C
:103D600000007F0000004136080008100804080029
:103D700000B0034000B00B400080034000900340BF
:103D800000800B4000F00F4040F00F4080F00F40EB
:103D9000C0F00F4000F10F400090044000A004402C
:103DA00000B0044000C0044000D004400060064061
:103DB000007006400B1F00000009000000A0064034
:103DC00000B0064000C0064000D0064000A00E40F3
:103DD00000B00E40433A5C55736572735C54686979
:103DE0006E6B70645C4465736B746F705C736F664C
:103DF00074776F72655C6C616E7A6F754D41413896
:103E00003435582D4B36302D56315C7372635C64FB
:103E10007269766572735C6164635C6164632E636E
:103E200000000000433A5C55736572735C54686926
:103E30006E6B70645C4465736B746F705C736F66FB
:103E400074776F72655C6C616E7A6F754D41413845
:103E50003435582D4B36302D56315C7372635C64AB
:103E60007269766572735C46544D5C46544D2E63A0
:103E700000000000433A5C55736572735C546869D6
:103E80006E6B70645C4465736B746F705C736F66AB
:103E900074776F72655C6C616E7A6F754D414138F5
:103EA0003435582D4B36302D56315C7372635C645B
:103EB0007269766572735C6770696F5C6770696F51
:103EC0002E630000F0B4114E366834000F4E366891
:103ED00056F47F060D4F3E600E0616F0706656EAE9
:103EE0000076170517F470073E431F0417F4702778
:103EF0003E43074F3E6000263500EDB29D4201D2A1
:103F00006D1CFAE7014E3460F0BC704700F00140D0
:103F100044800440B6CFD1D4B7A2C9FAD4DA25730D
:103F2000CEC4BCFEB5C4B5DA2564D0D0A3A10AB610
:103F3000CFD1D4CCF5BCFEB2BBB3C9C1A2A3ACC730
:103F4000EBBCECB2E2B4EDCEF3D4ADD2F2A1A30956
:103F5000A1AAA1AA206279200A0A0000C4DABACB79
:103F6000C6B5C2CAA3BA25644D487A09D7DCCFDFEB
:103F7000C6B5C2CA20A3BA25644D487A0A666C65E4
:103F800078C6B5C2CAA3BA25644D487A2009666CC2
:103F9000617368C6B5C2CAA3BA25644D487A0A0AD5
:103FA000000000000A546869732076657273696FB7
:103FB0006E206F6620736F66747761726520646F20
:103FC00065736E2774207265636F676E697A65200A
:103FD000746865207265766973696F6E20636F64BB
:103FE000652E00000A4552522120496E76616C69A7
:103FF00064204952512076616C756520706173733D
:10400000656420746F20656E61626C6520697271F1
:104010002066756E6374696F6E210A000A2A2A2A67
:104020002A64656661756C745F69737220656E746D
:1040300065726564206F6E20766563746F722025EB
:10404000642A2A2A2A2A0D0A0A0000000A556E72DA
:1040500065636F676E697A6564204B696E65746924
:1040600073207061636B61676520636F64652E20E8
:1040700020202020200000000A556E7265636F67C3
:104080006E697A6564204B696E6574697320666138
:104090006D696C79206465766963652E0A0000009D
:1040A000466C61736820706172616D657465722021
:1040B00076657273696F6E2025642E25642E2564E3
:1040C0002E25640A0000000010B507497944183114
:1040D000064C7C44163404E00A68081D51188847D1
:1040E0000146A142F8D110BD0800000014000000F4
:1040F000E7CCFFFF44000000C404FF1F00000000E5
:104100000A2A2A2A2AD3B2BCFEC9CFB7C3B4EDCE3D
:10411000F32121212A2A2A2A2A0D0A0A0000000056
:104120000A0A0909C0B6D6E66B696E65746973BA86
:10413000CBD0C4B0E5B2E2CAD4B3CCD0F20A00000E
:104140000AC0B6D6E64B696E65746973BFAAB7A29A
:10415000B0E5C6F4B6AFB7BDCABDA3BA0000000053
:10416000455252212120556E646566696E65642052
:10417000502D666C6173682073697A650A000000CF
:10418000455252212120556E646566696E65642032
:10419000466C65784E564D2073697A650A000000BA
:1041A000466C6173682076657273696F6E2049444E
:1041B0002025642E25642E25642E25640A00000027
:1041C000436F7265204C6F636B7570204576656E2A
:1041D000742052657365740A000000004C6F772DDF
:1041E000766F6C74616765204465746563742052F2
:1041F000657365740A000000455252212120556EF6
:10420000646566696E65642052414D2073697A6504
:104210000A0A000000F00BF8002801D0FFF754FF55
:104220000020C046C046FDF799FA00F002F80120D0
:10423000704700F001B800000746384600F002F869
:10424000FBE7000080B5C046C046024A11001820B6
:10425000ABBEFBE7260002005761746368646F67BA
:1042600028434F50292052657365740A00000000EE
:104270004C6F7373206F6620436C6F636B205265C5
:104280007365740A00000000313238206B42797483
:104290006573206F6620502D666C6173680900009D
:1042A000323536206B4279746573206F6620502D4D
:1042B000666C617368090000353132206B42797495
:1042C0006573206F6620502D666C6173680900006D
:1042D00030206B4279746573206F6620466C657878
:1042E0004E564D0A00000000313238206B4279747E
:1042F0006573206F6620466C65784E564D0A000047
:10430000323536206B4279746573206F6620466CB7
:1043100065784E564D0A000080B503480178C9B251
:104320000248FCF7ECFB01BD04ED00E01C4000007E
:104330000AC4E3B7A2CBCDB5C4CAFDBEDDCEAAA3E5
:10434000BA000000444D415F4348305F48616E64ED
:104350006C65720A00000000B5E7D4B4B5E7D1B9C6
:10436000CEAAA3BA256620560A0A000045787465CD
:10437000726E616C2050696E2052657365740A001C
:1043800053696C69636F6E2072657620312E302020
:1043900020200A0053696C69636F6E207265762075
:1043A000312E3120200A000053696C69636F6E2042
:1043B00072657620312E3220200A00003332206BC5
:1043C0004279746573206F662052414D0A0A0000DD
:1043D0003634206B4279746573206F662052414DEC
:1043E0000A0A00003936206B4279746573206F66C3
:1043F0002052414D0A0A0000313238206B42797454
:104400006573206F662052414D0A0A000A46544DDA
:1044100031B7A2CBCDD6D0B6CF0A0000536F6674A9
:10442000776172652052657365740A00506F776515
:10443000722D6F6E2052657365740A003332706995
:104440006E202020202020200000000034387069D9
:104450006E202020202020200000000036347069CB
:104460006E202020202020200000000038307069BD
:104470006E202020202020200000000038317069AC
:104480006E202020202020200000000031303070DD
:10449000696E202020202020000000003130347080
:1044A000696E20202020202000000000313434706C
:1044B000696E202020202020000000003139367055
:1044C000696E202020202020000000003235367048
:1044D000696E20202020202000000000502D666CF6
:1044E000617368206F6E6C790A00000010B50400DB
:1044F0002100C9B20520FDF7AAFC10BD4A5441476E
:104500002052657365740A004C4C575520526573F0
:1045100065740A00666C617368C6F4B6AF0A000081
:104520005352414DC6F4B6AF0A000000C046C04623
:10453000C046C046FFF76EFE0A4B31302D0000002A
:104540000A4B32302D0000000A4B33302D000000A2
:104550000A4B34302D0000000A4B36302D0000008D
:104560000A4B37302D0000000A4B35302D0000007B
:084570000A4B35332D00000059
:040000050000452D85
:00000001FF
